:100000000C94B0000C94CD000C94CD000C94CD0059
:100010000C94CD000C94CD000C94CD000C94CD002C
:100020000C94CD000C94CD000C94FD010C943B027B
:100030000C94CD000C94CD000C94CD000C94CD000C
:100040000C94CD000C94CD000C94CD000C94CD00FC
:100050000C94CD000C94CD000C94CD000C94CD00EC
:100060000C94CD000C94CD000C94CD000C94CD00DC
:100070000C94CD000C94C8010C94CD000C94CD00D0
:100080000C94CD000C94CD000C94CD000C94CD00BC
:100090000C94CD000C94CD000C94CD000C94CD00AC
:1000A0000C94CD000C94CD000C94CD000001000008
:1000B0004301120002000000014300030000FC00A5
:1000C0000401030904E8001202030904E000060326
:1000D000030904D600080803340031003000000092
:1000E00006034D003200000012034A002E002000DB
:1000F0004600690065006E00650000000403090405
:1001000009024300020100C032090400000102029A
:100110000100052400100105240101010424020648
:1001200005240600010705820310004009040100B0
:10013000020A0000000705030240000007058402D0
:100140004000001201000202000010C0167A0400F4
:1001500001010203010001C1120180360181360054
:1001600011241FBECFEFDAE0DEBFCDBF11E0A0E06B
:10017000B1E0E0E8F7E002C005900D92AE30B107C3
:10018000D9F721E0AEE0B1E001C01D92A132B20783
:10019000E1F70E9416010C94BE030C940000E1E606
:1001A000F0E080E8808384E080830E94EC01089581
:1001B000CF93DF93ACE7B0E08C918F778C938C91E9
:1001C00080648C93EAE7F0E080818B7F808380817C
:1001D00082608083808181608083CDE7D0E08881E8
:1001E0008160888388818260888388818460888335
:1001F000789480818860808380818F7D8083CBE745
:10020000D0E08881806288838C918B7F8C938C91E5
:100210008D7F8C938C918E7F8C938081806880837E
:10022000808180648083DF91CF9108956E9A769863
:100230000E94CF000E94D8006A9A729820911401FF
:1002400030911501409110015091110180911201DE
:1002500090911301840F951F820F931F90930F01AC
:1002600080930E01283E33401CF46E9A769AE6CFB6
:100270006E9A7698E3CFE0E0F1E0808191819093EF
:1002800015018093140182819381909313018093CF
:10029000120184819581909311018093100108953A
:1002A000EAE7F0E080818F77808380911C01909154
:1002B0001D018130910531F18230910509F441C071
:1002C000892B09F05CC081E090E090931D01809340
:1002D0001C01EBE7F0E0808180628083ECE7F0E0D6
:1002E00080818B7F808380818D7F8083808181600E
:1002F0008083809178009091790090931B01809386
:100300001A013DC082E090E090931D0180931C0192
:10031000EBE7F0E0808180628083ECE7F0E08081B1
:100320008B7F808380818260808380818E7F8083C9
:100330008091780090917900909319018093180131
:100340001EC010921D0110921C01EBE7F0E08081AD
:1003500080628083ECE7F0E080818B7F8083808106
:100360008D7F808380818E7F8083809178009091C3
:10037000790090931701809316010E943B01EAE7F0
:10038000F0E080818068808380818064808308952C
:100390001F920F920FB60F9211242F933F934F93FA
:1003A0005F936F937F938F939F93AF93BF93EF93DD
:1003B000FF930E945001FF91EF91BF91AF919F91E8
:1003C0008F917F916F915F914F913F912F910F90FE
:1003D0000FBE0F901F901895589A599A5A9A8CE010
:1003E0008093B800E9E6F0E08081806280838081BC
:1003F0008F7E8083EA9A789408951F920F920FB6A9
:100400000F9211248F939F93EF93FF93E1EEF0E00F
:100410008081108283FF11C01092E90091E09093D7
:10042000EB001092EC0092E19093ED0098E0909335
:10043000F0001092200110921E0182FF13C08091E3
:100440002001882379F080911F01882359F0815081
:1004500080931F01811106C084E08093E9008AE344
:100460008093E800FF91EF919F918F910F900FBEC5
:100470000F901F9018951F920F920FB60F92112494
:100480000F931F932F933F934F935F936F937F939C
:100490008F939F93AF93BF93CF93DF93EF93FF938C
:1004A0001092E9008091E80083FF4CC1E1EFF0E099
:1004B000608180812081908130E0392B4081908162
:1004C00050E0592B7081C08192EF9093E800863004
:1004D00009F058C004C081E28093EB003AC166E0A5
:1004E0008CEA90E0FC01A591B4912A173B0711F02A
:1004F000079623C0FC013296A591B4914A175B0779
:1005000011F007961AC0FC01349645915491FC01F4
:1005100036962491872F90E09C2B8F3F910519F000
:1005200010F08FEF90E0821708F4282FA8EEB0E0CB
:1005300070E16EEFC1EFD0E003C0615099F6CBCF10
:100540008C91982F9570E1F382FD03C1322F2131F8
:1005500008F0372F332309F4F9C0FA01832F94915F
:100560009883815031968111FACF8FEF830F90E0FD
:100570000196480F591F231B6C932111E1CF303195
:10058000F9F2E7C0853061F48EEF8093E800E8EE81
:10059000F0E0808180FFFDCF20682093E300D9C088
:1005A000893009F035C06111CDC02093200110922F
:1005B0001E0110921F018EEF8093E80081E025E577
:1005C00031E0C9EED0E0ABEEB0E00CEE10E06DEE45
:1005D00070E08883A9014F5F5F4FF90194919C936C
:1005E000992361F0FA014491F8014083F9013296B0
:1005F00094912D5F3F4FFB01908301C09A018F5F63
:10060000853039F7EAEEF0E08EE180831082A1C0F8
:10061000883081F4603809F095C0E8EEF0E0808120
:1006200080FFFDCF809120018093F1008EEF8093B9
:10063000E8008FC08132B9F4613A09F083C0E8EE76
:10064000F0E0808180FFFDCFE6E0F1E02DE031E0D9
:10065000A1EFB0E081918C93E217F307D9F78EEF09
:100660008093E80076C08032D1F4613209F06AC02C
:10067000E8EEF0E0808182FFFDCFE6E0F1E02DE0E2
:1006800031E0A1EFB0E08C918193E217F307D9F745
:10069000E8EEF0E08BEF80838EEF80835AC08232E9
:1006A00071F4613209F04EC020931E01E8EEF0E0D3
:1006B000808180FFFDCF8EEF8093E8004AC08111DA
:1006C0001AC0E8EEF0E0808180FFFDCF623851F47F
:1006D000E9EEF0E040838091EB0085FB882780F90C
:1006E000108201C080E0E1EFF0E0808310828EEFA5
:1006F0008093E8002EC0982F9D7F913019F56230CD
:1007000009F5232BF9F44F779FEF940F9430D0F431
:100710009EEF9093E8004093E900833021F481E25A
:100720008093EB0016C089E18093EB0081E090E0BC
:1007300002C0880F991F4A95E2F7EAEEF0E0808345
:10074000108207C081E28093EB0003C06C932111FB
:10075000F7CEFF91EF91DF91CF91BF91AF919F9134
:100760008F917F916F915F914F913F912F911F9149
:100770000F910F900FBE0F901F901895F894FFCF18
:0E078000FFFFFFFFFFFF00E100000000080088
:00000001FF
