:100000000C94B0000C94CD000C94CD000C94CD0059
:100010000C94CD000C94CD000C94CD000C94CD002C
:100020000C94CD000C94CD000C9448020C948602E4
:100030000C94CD000C94CD000C94CD000C94CD000C
:100040000C94CD000C94CD000C94CD000C94CD00FC
:100050000C94CD000C94CD000C94CD000C94CD00EC
:100060000C94CD000C94CD000C94CD000C94CD00DC
:100070000C94CD000C94AE010C94CD000C94CD00EA
:100080000C94CD000C94CD000C94CD000C94CD00BC
:100090000C94CD000C94CD000C94CD000C94CD00AC
:1000A0000C94CD000C94CD000C94CD000001000008
:1000B0004301120002000000014300030000FC00A5
:1000C0000401030904E8001202030904E000060326
:1000D000030904D600080803340031003000000092
:1000E00006034D003200000012034A002E002000DB
:1000F0004600690065006E00650000000403090405
:1001000009024300020100C032090400000102029A
:100110000100052400100105240101010424020648
:1001200005240600010705820310004009040100B0
:10013000020A0000000705030240000007058402D0
:100140004000001201000202000010C0167A0400F4
:1001500001010203010001C1120180360181360054
:1001600011241FBECFEFDAE0DEBFCDBF11E0A0E06B
:10017000B1E0EAE6FAE002C005900D92A830B107BE
:10018000D9F721E0A8E0B1E001C01D92A931B20782
:10019000E1F70E9416010C9433050C940000E1E68F
:1001A000F0E080E8808384E080830E94E601089587
:1001B000CF93DF93ACE7B0E08C918F778C938C91E9
:1001C00080648C93EAE7F0E080818B7F808380817C
:1001D00082608083808181608083CDE7D0E08881E8
:1001E0008160888388818260888388818460888335
:1001F000789480818860808380818F7D8083CBE745
:10020000D0E08881806288838C918B7F8C938C91E5
:100210008D7F8C938C918E7F8C938081806880837E
:10022000808180648083DF91CF9108956E9A769863
:100230000E94CF000E94D8006A9A7298FFCF8091E6
:100240000C0190910D01EEE0F1E0808380910A01B4
:1002500090910B0182838091080190910901848320
:1002600046E0BF018CE70E94F7010895EAE7F0E05D
:1002700080818F7780838091140190911501813066
:10028000910531F18230910509F441C0892B09F0C3
:100290005CC081E090E09093150180931401EBE73E
:1002A000F0E0808180628083ECE7F0E080818B7FEA
:1002B000808380818D7F8083808181608083809135
:1002C00078009091790090930D0180930C013DC0CE
:1002D00082E090E09093150180931401EBE7F0E049
:1002E000808180628083ECE7F0E080818B7F808377
:1002F00080818260808380818E7F8083809178007E
:100300009091790090930B0180930A011EC0109286
:10031000150110921401EBE7F0E080818062808388
:10032000ECE7F0E080818B7F808380818D7F80830C
:1003300080818E7F80838091780090917900909366
:100340000901809308010E941F01EAE7F0E0808123
:100350008068808380818064808308951F920F92DB
:100360000FB60F9211242F933F934F935F936F9388
:100370007F938F939F93AF93BF93EF93FF9360917E
:1003800078007091790080E090E00E9438042AE4BF
:1003900039E245EF51E40E949E040E9409047093E3
:1003A0008900609388000E943601FF91EF91BF9110
:1003B000AF919F918F917F916F915F914F913F91FD
:1003C0002F910F900FBE0F901F901895589A599A21
:1003D0005A9A8CE08093B800E9E6F0E08081806270
:1003E000808380818F7E8083EA9A78940895CF936A
:1003F000DF93F89494EA9093BC00ECEBF0E09081EA
:100400009923ECF790E59093BB0094E89093BC009F
:10041000ECEBF0E090819923ECF79091B900987F94
:10042000903231F484E98093BC00789480E02DC050
:1004300093E09093BB0094E89093BC00ECEBF0E069
:1004400090819923ECF78093BB0084E88093BC00F3
:10045000ECEBF0E080818823ECF7442389F0DB01AA
:10046000640F711DCBEBD0E0ECEBF0E094E88D91E4
:100470008883908380818823ECF7A617B707B9F7A4
:1004800084E98093BC00789481E0DF91CF91089556
:100490001F920F920FB60F9211248F939F93EF9399
:1004A000FF93E1EEF0E08081108283FF11C0109293
:1004B000E90091E09093EB001092EC0092E19093B0
:1004C000ED0098E09093F000109218011092160140
:1004D00082FF13C080911801882379F08091170161
:1004E000882359F0815080931701811106C084E060
:1004F0008093E9008AE38093E800FF91EF919F9158
:100500008F910F900FBE0F901F9018951F920F9212
:100510000FB60F9211240F931F932F933F934F9376
:100520005F936F937F938F939F93AF93BF93CF937B
:10053000DF93EF93FF931092E9008091E80083FF2F
:100540004CC1E1EFF0E0608180812081908130E05A
:10055000392B4081908150E0592B7081C08192EFFE
:100560009093E800863009F058C004C081E280937F
:10057000EB003AC166E08CEA90E0FC01A591B491F1
:100580002A173B0711F0079623C0FC013296A5916C
:10059000B4914A175B0711F007961AC0FC01349614
:1005A00045915491FC0136962491872F90E09C2B25
:1005B0008F3F910519F010F08FEF90E0821708F44B
:1005C000282FA8EEB0E070E16EEFC1EFD0E003C0DD
:1005D000615099F6CBCF8C91982F9570E1F382FD05
:1005E00003C1322F213108F0372F332309F4F9C02A
:1005F000FA01832F94919883815031968111FACF1B
:100600008FEF830F90E00196480F591F231B6C93C7
:100610002111E1CF3031F9F2E7C0853061F48EEF7E
:100620008093E800E8EEF0E0808180FFFDCF206855
:100630002093E300D9C0893009F035C06111CDC0E5
:100640002093180110921601109217018EEF8093DB
:10065000E80081E025E531E0C9EED0E0ABEEB0E0A6
:100660000CEE10E06DEE70E08883A9014F5F5F4FE4
:10067000F90194919C93992361F0FA014491F80156
:100680004083F901329694912D5F3F4FFB01908397
:1006900001C09A018F5F853039F7EAEEF0E08EE114
:1006A00080831082A1C0883081F4603809F095C041
:1006B000E8EEF0E0808180FFFDCF8091180180930B
:1006C000F1008EEF8093E8008FC08132B9F4613A77
:1006D00009F083C0E8EEF0E0808180FFFDCFE0E02C
:1006E000F1E027E031E0A1EFB0E081918C93E217D7
:1006F000F307D9F78EEF8093E80076C08032D1F40B
:10070000613209F06AC0E8EEF0E0808182FFFDCF3F
:10071000E0E0F1E027E031E0A1EFB0E08C918193DF
:10072000E217F307D9F7E8EEF0E08BEF80838EEF66
:1007300080835AC0823271F4613209F04EC0209336
:100740001601E8EEF0E0808180FFFDCF8EEF809310
:10075000E8004AC081111AC0E8EEF0E0808180FF15
:10076000FDCF623851F4E9EEF0E040838091EB0078
:1007700085FB882780F9108201C080E0E1EFF0E07E
:10078000808310828EEF8093E8002EC0982F9D7F8B
:10079000913019F5623009F5232BF9F44F779FEF6B
:1007A000940F9430D0F49EEF9093E8004093E900CA
:1007B000833021F481E28093EB0016C089E18093BD
:1007C000EB0081E090E002C0880F991F4A95E2F7A4
:1007D000EAEEF0E08083108207C081E28093EB00B4
:1007E00003C06C932111F7CEFF91EF91DF91CF9170
:1007F000BF91AF919F918F917F916F915F914F9139
:100800003F912F911F910F910F900FBE0F901F904E
:1008100018950E947D0488F09F5798F0B92F99276A
:10082000B751B0F0E1F0660F771F881F991F1AF0DB
:10083000BA95C9F714C0B13091F00E949704B1E0A5
:1008400008950C949704672F782F8827B85F39F0A4
:10085000B93FCCF3869577956795B395D9F73EF474
:1008600090958095709561957F4F8F4F9F4F08951C
:10087000E89409C097FB3EF490958095709561953A
:100880007F4F8F4F9F4F9923A9F0F92F96E9BB27F0
:100890009395F695879577956795B795F111F8CF6C
:1008A000FAF4BB0F11F460FF1BC06F5F7F4F8F4FD7
:1008B0009F4F16C0882311F096E911C0772321F0CD
:1008C0009EE8872F762F05C0662371F096E8862F65
:1008D00070E060E02AF09A95660F771F881FDAF7BC
:1008E000880F9695879597F9089557FD9058440F6E
:1008F000551F59F05F3F71F04795880F97FB991F7F
:1009000061F09F3F79F0879508951216130614063B
:10091000551FF2CF4695F1DF08C0161617061806C8
:10092000991FF1CF86957105610508940895E894A3
:10093000BB2766277727CB0197F908950E94B1045A
:100940000C9422050E94140538F00E941B0520F02B
:10095000952311F00C940B050C94110511240C94A3
:1009600098040E94750470F3959FC1F3950F50E0B1
:10097000551F629FF001729FBB27F00DB11D639F51
:10098000AA27F00DB11DAA1F649F6627B00DA11DF7
:10099000661F829F2227B00DA11D621F739FB00D9D
:1009A000A11D621F839FA00D611D221F749F33270D
:1009B000A00D611D231F849F600D211D822F762FA6
:1009C0006A2F11249F5750409AF0F1F088234AF083
:1009D000EE0FFF1FBB1F661F771F881F91505040EF
:1009E000A9F79E3F510580F00C940B050C949804D8
:1009F0005F3FE4F3983ED4F3869577956795B79576
:100A0000F795E7959F5FC1F7FE2B880F911D96958F
:100A1000879597F9089597F99F6780E870E060E0FF
:100A200008959FEF80EC089500240A941616170687
:100A300018060906089500240A94121613061406CF
:100A400005060895092E0394000C11F4882352F032
:100A5000BB0F40F4BF2B11F460FF04C06F5F7F4FEA
:0A0A60008F4F9F4F0895F894FFCFC9
:080A6A0000E10000000008009B
:00000001FF
