:100000000C94BD000C94DA000C94DA000C94DA0025
:100010000C94DA000C94DA000C94DA000C94DA00F8
:100020000C94DA000C94DA000C94E8020C94260389
:100030000C94DA000C94DA000C94DA000C94DA00D8
:100040000C94DA000C94DA000C94DA000C94DA00C8
:100050000C94DA000C94DA000C94DA000C94DA00B8
:100060000C94DA000C94DA000C94DA000C94DA00A8
:100070000C94DA000C94F3010C94DA000C94DA007E
:100080000C94DA000C94DA000C94DA000C94DA0088
:100090000C94DA000C94DA000C94DA000C94DA0078
:1000A0000C94DA000C94DA000C94DA000A00202098
:1000B0002020204B643D200020202020204B693D43
:1000C00020004B703D2000000100005E0112000284
:1000D00000001B0143000300001701040103090491
:1000E00003011202030904FB000603030904F100E3
:1000F000080803340031003000000006034D0032D0
:1001000000000012034A002E00200046006900652E
:10011000006E0065000000040309040902430002A8
:100120000100C032090400000102020100052400A0
:100130001001052401010104240206052406000122
:100140000705820310004009040100020A000000B4
:100150000705030240000007058402400000120169
:10016000000202000010C0167A040001010203011F
:100170000001C11201803601813611241FBECFEF6C
:10018000DAE0DEBFCDBF11E0A0E0B1E0E4EBFCE0DF
:1001900002C005900D92A830B107D9F721E0A8E080
:1001A000B1E001C01D92AA31B207E1F70E9423011C
:1001B0000C9458060C940000E1E6F0E080E880839F
:1001C00084E080830E942B020895CF93DF93ACE7F5
:1001D000B0E08C918F778C938C9180648C93EAE75C
:1001E000F0E080818B7F808380818260808380814A
:1001F00081608083CDE7D0E08881816088838881B9
:100200008260888388818460888378948081886014
:10021000808380818F7D8083CBE7D0E0888180627E
:1002200088838C918B7F8C938C918D7F8C938C9118
:100230008E7F8C93808180688083808180648083BE
:10024000DF91CF9108956E9A76980E94DC000E940B
:10025000E5006A9A7298FFCFCF93DF9380910C01EB
:1002600090910D01CEE0D1E0888380910A019091B8
:100270000B018A8380910801909109018C8346E0EB
:10028000BE018CE70E943C028881998190930D0108
:1002900080930C018A819B8190930B0180930A01CA
:1002A0008C819D81909309018093080182EC90E0FC
:1002B0000E94A90480910C0190910D010E94C50437
:1002C00088EB90E00E94A90480910A0190910B01B3
:1002D0000E94C5048EEA90E00E94A9048091080162
:1002E000909109010E94C5048CEA90E00E94A90443
:1002F000DF91CF910895EAE7F0E080818F778083E6
:1003000080911401909115018130910531F1823075
:10031000910509F441C0892B09F05CC081E090E0AF
:100320009093150180931401EBE7F0E080818062E7
:100330008083ECE7F0E080818B7F808380818D7FFC
:1003400080838081816080838091780090917900A2
:1003500090930D0180930C013DC082E090E090935A
:10036000150180931401EBE7F0E0808180628083C7
:10037000ECE7F0E080818B7F8083808182608083E6
:1003800080818E7F80838091780090917900909316
:100390000B0180930A011EC01092150110921401E6
:1003A000EBE7F0E0808180628083ECE7F0E0808121
:1003B0008B7F808380818D7F808380818E7F80830F
:1003C00080917800909179009093090180930801C1
:1003D0000E942C01EAE7F0E08081806880838081C0
:1003E0008064808308951F920F920FB60F9211249C
:1003F0002F933F934F935F936F937F938F939F932D
:10040000AF93BF93EF93FF93609178007091790061
:1004100080E090E00E9428052AE439E245EF51E4AB
:100420000E948E050E94F9047093890060938800F1
:100430000E947B01FF91EF91BF91AF919F918F91AE
:100440007F916F915F914F913F912F910F900FBED0
:100450000F901F901895589A599A5A9A8CE0809349
:10046000B800E9E6F0E080818062808380818F7E41
:100470008083EA9A78940895CF93DF93F89494EA6E
:100480009093BC00ECEBF0E090819923ECF790E5C1
:100490009093BB0094E89093BC00ECEBF0E090816B
:1004A0009923ECF79091B900987F903231F484E968
:1004B0008093BC00789480E02DC093E09093BB00C3
:1004C00094E89093BC00ECEBF0E090819923ECF77A
:1004D0008093BB0084E88093BC00ECEBF0E080816B
:1004E0008823ECF7442389F0DB01640F711DCBEB0B
:1004F000D0E0ECEBF0E094E88D91888390838081EC
:100500008823ECF7A617B707B9F784E98093BC00F6
:10051000789481E0DF91CF910895CF93DF9390910C
:100520001901992309F44CC09FB7F89424E0209353
:10053000E90020911701222349F02091E80025FDD0
:1005400003C09FBF8FEF41C0109217013091E400AC
:10055000375E2091E80025FD24C09FBF9091E40004
:10056000931781F090911901992361F1A9EEB0E000
:1005700044E0E8EEF0E0C4EED0E00DC09FBF98810B
:10058000931305C081E0809317018FEF1EC09091F7
:1005900019019923C9F09FB7F8944C93208125FF46
:1005A000EDCF8093F1008091E80085FD03C08AE3E0
:1005B0008093E80085E0809318019FBF80E005C02C
:1005C0008FEF03C08FEF01C08FEFDF91CF910895C0
:1005D0001F920F920FB60F9211248F939F93EF9358
:1005E000FF93E1EEF0E08081108283FF11C0109252
:1005F000E90091E09093EB001092EC0092E190936F
:10060000ED0098E09093F0001092190110921601FD
:1006100082FF13C080911901882379F0809118011D
:10062000882359F0815080931801811106C084E01D
:100630008093E9008AE38093E800FF91EF919F9116
:100640008F910F900FBE0F901F9018951F920F92D1
:100650000FB60F9211240F931F932F933F934F9335
:100660005F936F937F938F939F93AF93BF93CF933A
:10067000DF93EF93FF931092E9008091E80083FFEE
:100680004CC1E1EFF0E0608180812081908130E019
:10069000392B4081908150E0592B7081C08192EFBD
:1006A0009093E800863009F058C004C081E280933E
:1006B000EB003AC166E087EC90E0FC01A591B491B3
:1006C0002A173B0711F0079623C0FC013296A5912B
:1006D000B4914A175B0711F007961AC0FC013496D3
:1006E00045915491FC0136962491872F90E09C2BE4
:1006F0008F3F910519F010F08FEF90E0821708F40A
:10070000282FA8EEB0E070E16EEFC1EFD0E003C09B
:10071000615099F6CBCF8C91982F9570E1F382FDC3
:1007200003C1322F213108F0372F332309F4F9C0E8
:10073000FA01832F94919883815031968111FACFD9
:100740008FEF830F90E00196480F591F231B6C9386
:100750002111E1CF3031F9F2E7C0853061F48EEF3D
:100760008093E800E8EEF0E0808180FFFDCF206814
:100770002093E300D9C0893009F035C06111CDC0A4
:100780002093190110921601109218018EEF809398
:10079000E80081E020E731E0C9EED0E0ABEEB0E068
:1007A0000CEE10E06DEE70E08883A9014F5F5F4FA3
:1007B000F90194919C93992361F0FA014491F80115
:1007C0004083F901329694912D5F3F4FFB01908356
:1007D00001C09A018F5F853039F7EAEEF0E08EE1D3
:1007E00080831082A1C0883081F4603809F095C000
:1007F000E8EEF0E0808180FFFDCF809119018093C9
:10080000F1008EEF8093E8008FC08132B9F4613A35
:1008100009F083C0E8EEF0E0808180FFFDCFE0E0EA
:10082000F1E027E031E0A1EFB0E081918C93E21795
:10083000F307D9F78EEF8093E80076C08032D1F4C9
:10084000613209F06AC0E8EEF0E0808182FFFDCFFE
:10085000E0E0F1E027E031E0A1EFB0E08C9181939E
:10086000E217F307D9F7E8EEF0E08BEF80838EEF25
:1008700080835AC0823271F4613209F04EC02093F5
:100880001601E8EEF0E0808180FFFDCF8EEF8093CF
:10089000E8004AC081111AC0E8EEF0E0808180FFD4
:1008A000FDCF623851F4E9EEF0E040838091EB0037
:1008B00085FB882780F9108201C080E0E1EFF0E03D
:1008C000808310828EEF8093E8002EC0982F9D7F4A
:1008D000913019F5623009F5232BF9F44F779FEF2A
:1008E000940F9430D0F49EEF9093E8004093E90089
:1008F000833021F481E28093EB0016C089E180937C
:10090000EB0081E090E002C0880F991F4A95E2F762
:10091000EAEEF0E08083108207C081E28093EB0072
:1009200003C06C932111F7CEFF91EF91DF91CF912E
:10093000BF91AF919F918F917F916F915F914F91F7
:100940003F912F911F910F910F900FBE0F901F900D
:1009500018950F931F93CF938C010F5F1F4FFC01CE
:10096000C491CC2371F0CA3019F48DE00E948D023D
:100970008C2F0E948D02F801C4910F5F1F4FC1118F
:10098000F2CFCF911F910F910895EF92FF920F93A5
:100990001F93CF93DF93CDB7DEB727970FB6F894A9
:1009A000DEBF0FBECDBF8E010F5F1F4F27E0F801E6
:1009B00011922A95E9F74AE0B8010E9423067E01C8
:1009C000F8E0EF0EF11CF80181918F0181110E9476
:1009D0008D020E151F05B9F727960FB6F894DEBFE6
:1009E0000FBECDBFDF91CF911F910F91FF90EF9080
:1009F00008950E946D0588F09F5798F0B92F9927A8
:100A0000B751B0F0E1F0660F771F881F991F1AF0F9
:100A1000BA95C9F714C0B13091F00E948705B1E0D2
:100A200008950C948705672F782F8827B85F39F0D1
:100A3000B93FCCF3869577956795B395D9F73EF492
:100A400090958095709561957F4F8F4F9F4F08953A
:100A5000E89409C097FB3EF4909580957095619558
:100A60007F4F8F4F9F4F9923A9F0F92F96E9BB270E
:100A70009395F695879577956795B795F111F8CF8A
:100A8000FAF4BB0F11F460FF1BC06F5F7F4F8F4FF5
:100A90009F4F16C0882311F096E911C0772321F0EB
:100AA0009EE8872F762F05C0662371F096E8862F83
:100AB00070E060E02AF09A95660F771F881FDAF7DA
:100AC000880F9695879597F9089557FD9058440F8C
:100AD000551F59F05F3F71F04795880F97FB991F9D
:100AE00061F09F3F79F0879508951216130614065A
:100AF000551FF2CF4695F1DF08C0161617061806E7
:100B0000991FF1CF86957105610508940895E894C1
:100B1000BB2766277727CB0197F908950E94A10587
:100B20000C9412060E94040638F00E940B0620F076
:100B3000952311F00C94FB050C94010611240C94E0
:100B400088050E94650570F3959FC1F3950F50E0ED
:100B5000551F629FF001729FBB27F00DB11D639F6F
:100B6000AA27F00DB11DAA1F649F6627B00DA11D15
:100B7000661F829F2227B00DA11D621F739FB00DBB
:100B8000A11D621F839FA00D611D221F749F33272B
:100B9000A00D611D231F849F600D211D822F762FC4
:100BA0006A2F11249F5750409AF0F1F088234AF0A1
:100BB000EE0FFF1FBB1F661F771F881F915050400D
:100BC000A9F79E3F510580F00C94FB050C94880515
:100BD0005F3FE4F3983ED4F3869577956795B79594
:100BE000F795E7959F5FC1F7FE2B880F911D9695AE
:100BF000879597F9089597F99F6780E870E060E01E
:100C000008959FEF80EC089500240A9416161706A5
:100C100018060906089500240A94121613061406ED
:100C200005060895092E0394000C11F4882352F050
:100C3000BB0F40F4BF2B11F460FF04C06F5F7F4F08
:100C40008F4F9F4F0895BB274A3031F4992322F4E8
:100C5000BDE2909581959F4F0C942F06BB27FB0119
:100C60005527AA27880F991FAA1FA41710F0A41BA5
:100C700083955051B9F7A05DAA3308F0A95DA193FF
:100C8000009779F7B111B1931192CB010C944806FA
:100C9000DC01FC01672F71917723E1F7329704C0E3
:100CA0007C916D9370836291AE17BF07C8F308956E
:040CB000F894FFCFE6
:080CB40000E10000000008004F
:00000001FF
