S00F00006163726F6261742E7372656339
S11300000C94C1000C94DE000C94DE000C94D90313
S11300100C94DE000C94DE000C94DE000C94DE00E4
S11300200C94DE000C94DE000C9433060C947106E0
S11300300C94DE000C94DE000C94DE000C94DE00C4
S11300400C94DE000C94DE000C94DE000C94DE00B4
S11300500C94DE000C94DE000C94DE000C94DE00A4
S11300600C94DE000C94DE000C94DE000C94DE0094
S11300700C94DE000C94DE000C94DE000C94DE0084
S11300800C94DE000C94DE000C94DE000C94DE0074
S11300900C94DE000C94DE000C94DE000C94DE0064
S11300A00C94DE000C94DE000C94DE000A00616EF9
S11300B0676C653D20000A00202020202067793DE0
S11300C0002020202020617A3D0061783D2000003E
S11300D00100006601120002000023014300030036
S11300E0001F0104010309040B01120203090403A4
S11300F0010603030904F900080803340031003041
S113010000000006034D003200000012034A002ED6
S11301100020004600690065006E006500000004D0
S113012003090409024300020100C032090400006B
S1130130010202010005240010010524010101044B
S11301402402060524060001070582031000400965
S1130150040100020A000000070503024000000732
S11301600584024000001201000202000010C016C3
S11301707A040001010203010001C1120180360169
S1130180813611241FBECFEFDAE0DEBFCDBF11E010
S1130190A0E0B1E0E2EFF6E102C005900D92AE30CE
S11301A0B107D9F721E0AEE0B1E001C01D92AE3352
S11301B0B207E1F70E94CA030C94770B0C94000079
S11301C0E1E6F0E080E8808383E0808350985198F2
S11301D05298269A3E9A46986091040180910501AE
S11301E00E949C048823C1F30E94FD03089563E0E8
S11301F081E191E00E945B05E1E1F1E0808180937F
S11302001001818180930F01828180930E010895F2
S1130210E1E8F0E080818B7F808380818D7F808323
S11302208081816080838081806180838081886017
S11302308083E0E8F0E08081826080838081816057
S1130240808380818062808380818F7E8083E8E8E0
S1130250F0E080ED97E0918380836081718180E09C
S113026090E00E9492092091000130910101409197
S11302700201509103010E94490A0E94630970938C
S11302808B0060938A000895E1E9F0E080818B7F20
S1130290808380818D7F8083808181608083808161
S11302A08F7E8083808188608083E0E9F0E08081B4
S11302B08D7F808380818E7F808380ED97E0909313
S11302C099008093980008958F929F92AF92BF9265
S11302D0CF92DF92EF92FF92CF93DF936B017C0179
S11302E0EA01B901330F880B990B0E949409A70105
S11302F096010E94490A4B015C01A701960160E046
S113030070E080E89FE30E9478086B017C01BE01E5
S1130310DD0F880B990B0E9494099B01AC01C70166
S1130320B6010E94490A9B01AC01C501B4010E94B7
S113033079080E945C09CB01DF91CF91FF90EF9087
S1130340DF90CF90BF90AF909F908F9008958F9241
S11303509F92AF92BF92CF92DF92EF92FF920F9350
S11303601F93CF93DF936B017C01E901BA01550F11
S1130370880B990B0E949409A70196010E94490ACF
S11303804B015C01B8016C1B7D0B072E000C880B24
S1130390990B0E949409A70196010E94490A9B01A6
S11303A0AC01C501B4010E9479080E945C09CB012B
S11303B0DF91CF911F910F91FF90EF90DF90CF903D
S11303C0BF90AF909F908F9008958AEC90E00E9428
S11303D0F40780912401909125010E94100881EC7A
S11303E090E00E94F40780912201909123010E94E1
S11303F0100888EB90E00E94F4076091200170914E
S11304002101072E000C880B990B0E94440886EBEF
S113041090E00E94F40708958F929F92AF92BF924A
S1130420CF92DF92EF92FF92CF93DF93C0911A01A4
S1130430D0911B01D195C195D109BE010D2E000C9F
S1130440880B990B0E9494094B015C012FE632E161
S113045043E85AE30E94490A20911401309115019E
S113046040911601509117010E9479086B017C019B
S113047060931401709315018093160190931701F2
S113048020E030E040E05FE3C501B4010E94490A86
S11304904B015C0120E030E0A901C701B6010E94D4
S11304A0490A9B01AC01C501B4010E9479086B01A2
S11304B07C0180911801909119019E01281B390B30
S11304C0B901330F880B990B0E9494092FE632E18E
S11304D043E85AE30E94EA082AE037ED43E25CE38A
S11304E00E94490A9B01AC01C701B6010E94790828
S11304F06B017C01D0931901C09318010E945C091F
S11305009B01772324F422273327261B370BB901B9
S1130510330F880B990B0E94940920E030E044E3E8
S113052052E40E94EA084B015C0120E030E040E81C
S11305305FE30E94440A18164CF0809200019092E6
S11305400101A0920201B09203010CC080E090E08E
S1130550A0E8BFE38093000190930101A0930201FE
S1130560B093030120E030E0A901C701B6010E9465
S1130570E508882314F4469A01C046980E94E501D0
S1130580DF91CF91FF90EF90DF90CF90BF90AF902D
S11305909F908F900895CF93DF93EC018EEA90E0C3
S11305A00E94F407CE010E9410088CEA90E00E9499
S11305B0F407DF91CF9108954F925F926F927F92EB
S11305C08F929F92AF92BF92CF92DF92EF92FF925F
S11305D00F931F93CF93DF9386E291E00E94090566
S11305E0882309F4C2C06A9A72986E9A769AC6E20F
S11305F0D1E028813981409124015091250163E3A0
S113060073E383E39FE30E946401885891096C01BA
S113061090932501809324012C813D8140912201F6
S11306205091230163E373E383E39FE30E94640136
S113063087967C0190932301809322010884D985B5
S1130640C02D40912001509121019E0163E373E389
S113065083E79FE30E94640120911E0130911F01F2
S1130660AC01495751098E016DEC7CEC8CEC9DE397
S11306700E94A7018C019093210180932001D093C3
S11306801F01C0931E01C19B69C0B601DD0C880B1C
S1130690990B0E9494094B015C01B701FF0C880B74
S11306A0990B0E9494096B017C01A5019401C50179
S11306B0B4010E94490A2B013C01A7019601C7011C
S11306C0B6010E94490A9B01AC01C301B2010E9418
S11306D079080E94BC0A6B017C0123E333E345E6FD
S11306E052E4C501B4010E94490AA70196010E947F
S11306F0EA080E945C096B017C0170933D016093E0
S11307003C0160911C0170911D01072E000C880BA7
S1130710990B0E9494094B015C01B801110F880BDD
S1130720990B0E9494092FE632E143E85AE30E94B0
S1130730490A9B01AC01C501B4010E9479080E94D9
S11307405C0970931D0160931C01C61AD70AD092EC
S11307501B01C0921A01C19A0E940C0280911A01D5
S113076090911B010E94CB0204C06A9A729A6E9AFD
S11307707698DF91CF911F910F91FF90EF90DF90CA
S1130780CF90BF90AF909F908F907F906F905F902D
S11307904F9008956E9A76980E94E0000E94BF05DB
S11307A00E9408010E9444016A9A72980E94DC0225
S11307B0FDCF1F920F920FB60F9211242F933F93E8
S11307C04F935F936F937F938F939F93AF93BF9355
S11307D0EF93FF930E94F700FF91EF91BF91AF91C8
S11307E09F918F917F916F915F914F913F912F9145
S11307F00F900FBE0F901F901895589A599A5A9AB5
S11308008CE08093B800E9E6F0E080818062808328
S113081080818F7E8083EA9A7894089584E8809317
S1130820BC00ECEBF0E080818823ECF78091BB0006
S1130830089520E030E0ECEBF0E08081882334F090
S11308402F5F3F4F293E83E03807B9F781E0283E08
S1130850334009F480E008958093BB0084E88093DA
S1130860BC000E941904882319F08091B900887F84
S11308700895CF93DF93C82FD62F84EA8093BC00CA
S11308800E941904811104C094E99093BC001CC017
S1130890DD2361F08C2F880F8F5F0E942C04883435
S11308A081F484E98093BC0080E00EC08C2F880F13
S11308B00E942C04803239F484E98093BC0080E0E7
S11308C003C081E001C081E0DF91CF910895CF930F
S11308D0DF93C82FD62F60E00E943904882379F073
S11308E08D2F0E942C04882351F084E98093BC004E
S11308F061E08C2F0E94390481110E940E04DF9163
S1130900CF910895CF93DF93C62FD42F60E00E9438
S11309103904882371F08C2F0E942C04882349F019
S11309208D2F0E942C04882321F084E98093BC003D
S113093081E0DF91CF910895CF93DF93843008F065
S113094060C0643008F05FC0D62FC82F0E94FD033A
S11309502FE58AEE90E0215080409040E1F700C0FE
S1130960000065E789E60E946704883609F04DC0F7
S113097041E06BE689E60E9482044C2F440F440F49
S1130980440F6CE189E60E9482044D2F440F440F0A
S1130990440F6BE189E60E94820442E067E389E642
S11309A00E94820440E062E08EE10E94820440E002
S11309B067E389E60E9482044EE164E389E60E94CB
S11309C0820441E067E689E60E9482044DE164E224
S11309D089E60E9482044EE965E289E60E94820467
S11309E043E066E289E60E94820446E967E289E61A
S11309F00E94820440E26AE689E60E94820481E061
S1130A0005C080E003C080E001C080E0DF91CF91A9
S1130A100895CF92DF92EF92FF921F93CF93DF93CB
S1130A20CDB7DEB764970FB6F894DEBF0FBECDBF67
S1130A306C01CE0101967C011EE4612F89E60E94BF
S1130A406704F70181937F0111501A33B1F78F8541
S1130A509889F601958384838F819885938782870B
S1130A6089819A81918B808B89899A8993838283E6
S1130A7089859A85918780878B819C8197878687D2
S1130A808B899C89918380838B859C8597838683BE
S1130A908D819E819587848781E064960FB6F89452
S1130AA0DEBF0FBECDBFDF91CF911F91FF90EF90BE
S1130AB0DF90CF900895CF93DF939C0184EA8093D5
S1130AC0BC00ECEBF0E090819923ECF781E5809396
S1130AD0BB0084E88093BC00ECEBF0E090819923A8
S1130AE0ECF78091B900887F883429F484E98093F5
S1130AF0BC0080E041C084EC8093BC00ECEBF0E0EF
S1130B0090819923ECF74091BB00461309C0842FD0
S1130B1090E001971816190644F040E050E01AC01E
S1130B2084E98093BC0080E027C0D90150E04150A3
S1130B305109B901640F751FECEBF0E084ECCBEBC9
S1130B40D0E0808390819923ECF798819D93A61738
S1130B50B707B9F784E88093BC00ECEBF0E0908130
S1130B609923ECF78091BB00F901E40FF51F808312
S1130B7084E98093BC0081E0DF91CF91089581E006
S1130B808093D70080EA8093D80082E189BD09B4BC
S1130B9000FEFDCF80E98093D8001092E00010920F
S1130BA03B01109238018CE08093E2007894089520
S1130BB0CF93DF9390913B01992309F44CC09FB7E5
S1130BC0F89424E02093E90020913901222349F08C
S1130BD02091E80025FD03C09FBF8FEF41C0109214
S1130BE039013091E400375E2091E80025FD24C0EE
S1130BF09FBF9091E400931781F090913B0199235A
S1130C0061F1A9EEB0E044E0E8EEF0E0C4EED0E03B
S1130C100DC09FBF9881931305C081E08093390173
S1130C208FEF1EC090913B019923C9F09FB7F894B0
S1130C304C93208125FFEDCF8093F1008091E80053
S1130C4085FD03C08AE38093E80085E080933A0140
S1130C509FBF80E005C08FEF03C08FEF01C08FEF0F
S1130C60DF91CF9108951F920F920FB60F92112426
S1130C708F939F93EF93FF93E1EEF0E080811082D6
S1130C8083FF11C01092E90091E09093EB00109261
S1130C90EC0092E19093ED0098E09093F0001092B4
S1130CA03B011092380182FF13C080913B018823DD
S1130CB079F080913A01882359F0815080933A0168
S1130CC0811106C084E08093E9008AE38093E80000
S1130CD0FF91EF919F918F910F900FBE0F901F90F6
S1130CE018951F920F920FB60F9211240F931F9312
S1130CF02F933F934F935F936F937F938F939F9320
S1130D00AF93BF93CF93DF93EF93FF931092E900D8
S1130D108091E80083FF4CC1E1EFF0E060818081C5
S1130D202081908130E0392B4081908150E0592B13
S1130D307081C08192EF9093E800863009F058C02A
S1130D4004C081E28093EB003AC166E08FEC90E04E
S1130D50FC01A591B4912A173B0711F0079623C013
S1130D60FC013296A591B4914A175B0711F00796DE
S1130D701AC0FC01349645915491FC013696249195
S1130D80872F90E09C2B8F3F910519F010F08FEF87
S1130D9090E0821708F4282FA8EEB0E070E16EEF1F
S1130DA0C1EFD0E003C0615099F6CBCF8C91982F5E
S1130DB09570E1F382FD03C1322F213108F0372F02
S1130DC0332309F4F9C0FA01832F94919883815055
S1130DD031968111FACF8FEF830F90E00196480F7F
S1130DE0591F231B6C932111E1CF3031F9F2E7C075
S1130DF0853061F48EEF8093E800E8EEF0E08081C6
S1130E0080FFFDCF20682093E300D9C0893009F02A
S1130E1035C06111CDC020933B011092380110926E
S1130E203A018EEF8093E80081E028E731E0C9EED3
S1130E30D0E0ABEEB0E00CEE10E06DEE70E0888335
S1130E40A9014F5F5F4FF90194919C93992361F03D
S1130E50FA014491F8014083F901329694912D5F8F
S1130E603F4FFB01908301C09A018F5F853039F7B2
S1130E70EAEEF0E08EE180831082A1C0883081F434
S1130E80603809F095C0E8EEF0E0808180FFFDCF86
S1130E9080913B018093F1008EEF8093E8008FC036
S1130EA08132B9F4613A09F083C0E8EEF0E0808160
S1130EB080FFFDCFE6E0F1E02DE031E0A1EFB0E00E
S1130EC081918C93E217F307D9F78EEF8093E800B2
S1130ED076C08032D1F4613209F06AC0E8EEF0E005
S1130EE0808182FFFDCFE6E0F1E02DE031E0A1EF6B
S1130EF0B0E08C918193E217F307D9F7E8EEF0E0C4
S1130F008BEF80838EEF80835AC0823271F461321A
S1130F1009F04EC020933801E8EEF0E0808180FFB4
S1130F20FDCF8EEF8093E8004AC081111AC0E8EE2D
S1130F30F0E0808180FFFDCF623851F4E9EEF0E00B
S1130F4040838091EB0085FB882780F9108201C0E3
S1130F5080E0E1EFF0E0808310828EEF8093E80080
S1130F602EC0982F9D7F913019F5623009F5232BFF
S1130F70F9F44F779FEF940F9430D0F49EEF909351
S1130F80E8004093E900833021F481E28093EB0090
S1130F9016C089E18093EB0081E090E002C0880FE5
S1130FA0991F4A95E2F7EAEEF0E08083108207C0C9
S1130FB081E28093EB0003C06C932111F7CEFF9183
S1130FC0EF91DF91CF91BF91AF919F918F917F91DD
S1130FD06F915F914F913F912F911F910F910F90BE
S1130FE00FBE0F901F9018950F931F93CF938C01F2
S1130FF00F5F1F4FFC01C491CC2371F0CA3019F468
S11310008DE00E94D8058C2F0E94D805F801C49168
S11310100F5F1F4FC111F2CFCF911F910F91089510
S1131020EF92FF920F931F93CF93DF93CDB7DEB769
S113103027970FB6F894DEBF0FBECDBF8E010F5FAA
S11310401F4F27E0F80111922A95E9F74AE0B80109
S11310500E94110B7E01F8E0EF0EF11CF801819162
S11310608F0181110E94D8050E151F05B9F7279627
S11310700FB6F894DEBF0FBECDBFDF91CF911F91A5
S11310800F91FF90EF900895EF92FF920F931F93AB
S1131090CF93DF93CDB7DEB72B970FB6F894DEBFAF
S11310A00FBECDBF8E010F5F1F4F2BE0F8011192D1
S11310B02A95E9F72AE0A8010E941C0B7E01FCE0B6
S11310C0EF0EF11CF80181918F0181110E94D80566
S11310D00E151F05B9F72B960FB6F894DEBF0FBE99
S11310E0CDBFDF91CF911F910F91FF90EF900895A5
S11310F05058BB27AA270E9490080C940A0A0E9401
S1131100FC0938F00E94030A20F039F49F3F19F4D7
S113111026F40C94F9090EF4E095E7FB0C94F3091A
S1131120E92F0E941B0A58F3BA1762077307840752
S1131130950720F079F4A6F50C943D0A0EF4E09599
S11311400B2EBA2FA02D0B01B90190010C01CA017D
S1131150A0011124FF27591B99F0593F50F4503E28
S113116068F11A16F040A22F232F342F4427585F1A
S1131170F3CF469537952795A795F0405395C9F732
S11311807EF41F16BA0B620B730B840BBAF09150EA
S1131190A1F0FF0FBB1F661F771F881FC2F70EC089
S11311A0BA0F621F731F841F48F48795779567955C
S11311B0B795F7959E3F08F0B0CF9395880F08F048
S11311C09927EE0F9795879508950E94CF0908F403
S11311D081E008950E94FE080C940A0A0E94030A02
S11311E058F00E94FC0940F029F45F3F29F00C9468
S11311F0F30951110C943E0A0C94F9090E941B0A3C
S113120068F39923B1F3552391F3951B550BBB2731
S1131210AA2762177307840738F09F5F5F4F220F76
S1131220331F441FAA1FA9F335D00E2E3AF0E0E86D
S113123032D091505040E695001CCAF72BD0FE2FB7
S113124029D0660F771F881FBB1F2617370748074B
S1131250AB07B0E809F0BB0B802DBF01FF27935803
S11312605F4F3AF09E3F510578F00C94F3090C94CB
S11312703E0A5F3FE4F3983ED4F3869577956795ED
S1131280B795F7959F5FC9F7880F911D9695879538
S113129097F90895E1E0660F771F881FBB1F621757
S11312A073078407BA0720F0621B730B840BBA0B15
S11312B0EE1F88F7E09508950E9463096894B111C0
S11312C00C943E0A08950E94230A88F09F5798F0D0
S11312D0B92F9927B751B0F0E1F0660F771F881F37
S11312E0991F1AF0BA95C9F714C0B13091F00E9451
S11312F03D0AB1E008950C943D0A672F782F8827A2
S1131300B85F39F0B93FCCF3869577956795B39577
S1131310D9F73EF490958095709561957F4F8F4FE6
S11313209F4F0895E89409C097FB3EF490958095EB
S1131330709561957F4F8F4F9F4F9923A9F0F92F97
S113134096E9BB279395F695879577956795B79515
S1131350F111F8CFFAF4BB0F11F460FF1BC06F5FFB
S11313607F4F8F4F9F4F16C0882311F096E911C00D
S1131370772321F09EE8872F762F05C0662371F02E
S113138096E8862F70E060E02AF09A95660F771F42
S1131390881FDAF7880F9695879597F90895990F1E
S11313A00008550FAA0BE0E8FEEF16161706E8072B
S11313B0F907C0F012161306E407F50798F0621B4C
S11313C0730B840B950B39F40A2661F0232B242B21
S11313D0252B21F408950A2609F4A140A6958FEF40
S11313E0811D811D089597F99F6780E870E060E092
S11313F008959FEF80EC089500240A9416161706AA
S113140018060906089500240A94121613061406F1
S113141005060895092E0394000C11F4882352F054
S1131420BB0F40F4BF2B11F460FF04C06F5F7F4F0C
S11314308F4F9F4F089557FD9058440F551F59F0F3
S11314405F3F71F04795880F97FB991F61F09F3FAD
S113145079F087950895121613061406551FF2CFD6
S11314604695F1DF08C0161617061806991FF1CF26
S113147086957105610508940895E894BB2766274D
S11314807727CB0197F908950E94CF0908F48FEFCD
S113149008950E945C0A0C940A0A0E94FC0938F020
S11314A00E94030A20F0952311F00C94F3090C9484
S11314B0F90911240C943E0A0E941B0A70F3959FAB
S11314C0C1F3950F50E0551F629FF001729FBB2737
S11314D0F00DB11D639FAA27F00DB11DAA1F649FD3
S11314E06627B00DA11D661F829F2227B00DA11D86
S11314F0621F739FB00DA11D621F839FA00D611D0C
S1131500221F749F3327A00D611D231F849F600D2C
S1131510211D822F762F6A2F11249F5750409AF055
S1131520F1F088234AF0EE0FFF1FBB1F661F771FE1
S1131530881F91505040A9F79E3F510580F00C94AC
S1131540F3090C943E0A5F3FE4F3983ED4F3869586
S113155077956795B795F795E7959F5FC1F7FE2B4C
S1131560880F911D9695879597F9089519F416F4A7
S11315700C94F9090C94FC0A0E94230AB8F39923E9
S1131580C9F3B6F39F57550B87FF0E940A0B00243B
S1131590A0E640EA900180585695979528F4805C1F
S11315A0660F771F881F20F026173707480730F487
S11315B0621B730B840B202931294A2BA69517949F
S11315C00794202531254A2758F7660F771F881F6F
S11315D020F026173707480730F4620B730B840B8F
S11315E0200D311D411DA09581F7B901842F91581B
S11315F0880F9695879508959F3F31F0915020F478
S1131600879577956795B795880F911D96958795DA
S113161097F9089591505040660F771F881FD2F7AD
S11316200895BB274A3031F4992322F4BDE2909502
S113163081959F4F0C944E0BBB272A3051F499236C
S113164042F4BDE290958095709561957F4F8F4FE0
S11316509F4F0C942C0BBB27FA01A62F6217710520
S113166081059105330B30FB66F0AA27660F771FBF
S1131670881F991FAA1FA21710F0A21B6395385048
S1131680A9F7A05DAA3308F0A95DA19336F7B111BB
S1131690B1931082CA010C94670BBB27FB01552739
S11316A0AA27880F991FAA1FA41710F0A41B8395BB
S11316B05051B9F7A05DAA3308F0A95DA193009732
S11316C079F7B111B1931192CB010C94670BDC0142
S11316D0FC01672F71917723E1F7329704C07C9165
S11316E06D9370836291AE17BF07C8F30895F894A1
S10516F0FFCF26
S11116F2CDCCCC3E010100E100000000080058
S9030000FC
