S00F00006163726F6261742E7372656339
S11300000C94B5000C94D2000C94D2000C94C70349
S11300100C94D2000C94D2000C94D2000C94D20014
S11300200C94D2000C94D2000C947A060C94B8066A
S11300300C94D2000C94D2000C94D2000C94D200F4
S11300400C94D2000C94D2000C94D2000C94D200E4
S11300500C94D2000C94D2000C94D2000C94D200D4
S11300600C94D2000C94D2000C94D2000C94D200C4
S11300700C94D2000C94D2000C94D2000C94D200B4
S11300800C94D2000C94D2000C94D2000C94D200A4
S11300900C94D2000C94D2000C94D2000C94D20094
S11300A00C94D2000C94D2000C94D2000A00616E1D
S11300B0676C653D2000000100004D011200020044
S11300C0000A01430003000006010401030904F2CD
S11300D0001202030904EA000603030904E000080D
S11300E00803340031003000000006034D003200E4
S11300F0000012034A002E0020004600690065003B
S11301006E006500000004030904090243000201B3
S113011000C032090400000102020100052400109D
S11301200105240101010424020605240600010737
S113013005820310004009040100020A00000007C0
S1130140050302400000070584024000001201007C
S11301500202000010C0167A04000101020301002B
S113016001C1120180360181360011241FBECFEF78
S1130170DAE0DEBFCDBF11E0A0E0B1E0ECEAF6E1E9
S113018002C005900D92AE30B107D9F721E0AEE080
S1130190B1E001C01D92AE33B207E1F70E94B6038D
S11301A00C94540B0C940000E1E6F0E080E88083AA
S11301B083E08083509851985298269A3E9A4698A4
S11301C060910401809105010E948A048823C1F38F
S11301D0789408950E9403060E941C068823E1F384
S11301E0089578940E94EB0343E06CE787E00E9453
S11301F04905089563E081E191E00E949F05E1E1F2
S1130200F1E0808180931001818180930F018281CC
S113021080930E010895E1E8F0E080818B7F808374
S113022080818D7F808380818160808380818061F3
S11302308083808188608083E0E8F0E08081826050
S113024080838081816080838081806280838081DB
S11302508F7E8083E8E8F0E088E893E191838083EF
S11302606081718180E090E00E94A50920910001E5
S11302703091010140910201509103010E94570AFB
S11302800E94760970938B0060938A000895E1E9D7
S1130290F0E080818B7F808380818D7F808380816B
S11302A08160808380818F7E808380818860808369
S11302B0E0E9F0E080818D7F808380818E7F808380
S11302C080ED97E0909399008093980008958F9221
S11302D09F92AF92BF92CF92DF92EF92FF92CF9311
S11302E0DF936B017C01EA01B901330F880B990B91
S11302F00E94A709A70196010E94570A4B015C01BD
S1130300A701960160E070E080E89FE30E948B08FB
S11303106B017C01BE01DD0F880B990B0E94A709BC
S11303209B01AC01C701B6010E94570A9B01AC01B5
S1130330C501B4010E948C080E946F09CB01DF91B2
S1130340CF91FF90EF90DF90CF90BF90AF909F90B0
S11303508F9008958F929F92AF92BF92CF92DF9227
S1130360EF92FF920F931F93CF93DF936B017C0166
S1130370E901BA01550F880B990B0E94A709A7013F
S113038096010E94570A4B015C01B8016C1B7D0B5E
S1130390072E000C880B990B0E94A709A701960150
S11303A00E94570A9B01AC01C501B4010E948C084C
S11303B00E946F09CB01DF91CF911F910F91FF90A4
S11303C0EF90DF90CF90BF90AF909F908F90089563
S11303D08F929F92AF92BF92CF92DF92EF92FF9251
S11303E0CF93DF93C0911A01D0911B01D195C19590
S11303F0D109BE010D2E000C880B990B0E94A70990
S11304004B015C012FE632E143E85AE30E94570AAC
S1130410209114013091150140911601509117015A
S11304200E948C086B017C01609314017093150188
S1130430809316019093170180911001682F70E04A
S113044080E090E00E94A70920E030E04FE753E409
S11304500E94FD089B01AC01C501B4010E94570A2A
S11304604B015C0180910F01682F70E080E090E007
S11304700E94A70920E030E04FE753E40E94FD0802
S11304809B01AC01C701B6010E94570A9B01AC0154
S1130490C501B4010E948C086B017C0160910E01BE
S11304A070E080E090E00E94A70920E030E04FE790
S11304B053E40E94FD084B015C0180911801909166
S11304C019019E01281B390BB901330F880B990BB5
S11304D00E94A7092FE632E143E85AE30E94FD088F
S11304E09B01AC01C501B4010E94570A9B01AC01F8
S11304F0C701B6010E948C086B017C01D0931901DD
S1130500C09318010E946F099B01772324F42227CA
S11305103327261B370BB901330F880B990B0E9425
S1130520A70920E030E044E352E40E94FD08609310
S1130530000170930101809302019093030120E074
S113054030E0A901C701B6010E94F808882314F419
S1130550469A01C04698DF91CF91FF90EF90DF90CB
S1130560CF90BF90AF909F908F900895CF93DF93DB
S1130570EC018EEA90E00E943B08CE010E945708ED
S11305808CEA90E00E943B08DF91CF9108954F924E
S11305905F926F927F928F929F92AF92BF92CF920F
S11305A0DF92EF92FF920F931F93CF93DF9386E234
S11305B091E00E94F704882309F4C3C06A9A7298F0
S11305C06E9A769AC6E2D1E028813981409124015D
S11305D05091250163E373E383E39FE30E94670182
S11305E0885891096C0190932501809324012C81F2
S11305F03D81409122015091230163E373E383E33E
S11306009FE30E94670187967C0190932301809366
S113061022010884D985C02D4091200150912101E7
S11306209E0163E373E383E79FE30E9467012091E4
S11306301E0130911F01AC01495751098E016DEC27
S11306407CEC8CEC9DE30E94AA018C019093210127
S113065080932001D0931F01C0931E01C19B6AC0E7
S1130660B601DD0C880B990B0E94A7094B015C01B4
S1130670B701FF0C880B990B0E94A7096B017C0141
S1130680A5019401C501B4010E94570A2B013C0144
S1130690A7019601C701B6010E94570A9B01AC014C
S11306A0C301B2010E948C080E94CA0A6B017C013A
S11306B023E333E345E652E4C501B4010E94570A3B
S11306C0A70196010E94FD080E946F096B017C013D
S11306D070933D0160933C0160911C0170911D0178
S11306E0072E000C880B990B0E94A7094B015C0193
S11306F0B801110F880B990B0E94A7092FE632E16C
S113070043E85AE30E94570A9B01AC01C501B401B6
S11307100E948C080E946F0970931D0160931C0154
S1130720CB018C199D0990931B0180931A01C19AE6
S11307300E94E80180911A0190911B010E94B60267
S113074004C06A9A729A6E9A7698DF91CF911F913B
S11307500F91FF90EF90DF90CF90BF90AF909F905C
S11307608F907F906F905F904F9008956E9A7698D7
S11307700E94D4000E94EA000E94F1000E940B0132
S11307800E9447016A9A72980E94C702FDCF1F9285
S11307900F920FB60F9211242F933F934F935F93B1
S11307A06F937F938F939F93AF93BF93EF93FF9335
S11307B00E94FA00FF91EF91BF91AF919F918F91A9
S11307C07F916F915F914F913F912F910F900FBE49
S11307D00F901F901895589A599A5A9A8CE08093C2
S11307E0B800E9E6F0E080818062808380818F7EBA
S11307F08083EA9A7894089584E88093BC00ECEBB3
S1130800F0E080818823ECF78091BB00089520E01C
S113081030E0ECEBF0E08081882334F02F5F3F4F31
S1130820293E83E03807B9F781E0283E334009F4D4
S113083080E008958093BB0084E88093BC000E940C
S11308400704882319F08091B900887F0895CF9315
S1130850DF93C82FD62F84EA8093BC000E9407043C
S1130860811104C094E99093BC001CC0DD2361F0A5
S11308708C2F880F8F5F0E941A04883481F484E9D6
S11308808093BC0080E00EC08C2F880F0E941A0455
S1130890803239F484E98093BC0080E003C081E0B5
S11308A001C081E0DF91CF910895CF93DF93C82FEA
S11308B0D62F60E00E942704882379F08D2F0E94B0
S11308C01A04882351F084E98093BC0061E08C2FE2
S11308D00E94270481110E94FC03DF91CF910895A7
S11308E0CF93DF93C62FD42F60E00E942704882380
S11308F071F08C2F0E941A04882349F08D2F0E94D6
S11309001A04882321F084E98093BC0081E0DF91FC
S1130910CF910895CF93DF93843008F060C06430A2
S113092008F05FC0D62FC82F0E94EB032FE58AEE94
S113093090E0215080409040E1F700C0000065E75E
S113094089E60E945504883609F04DC041E06BE603
S113095089E60E9470044C2F440F440F440F6CE14D
S113096089E60E9470044D2F440F440F440F6BE13D
S113097089E60E94700442E067E389E60E947004FD
S113098040E062E08EE10E94700440E067E389E6A3
S11309900E9470044EE164E389E60E94700441E021
S11309A067E689E60E9470044DE164E289E60E94EC
S11309B070044EE965E289E60E94700443E066E251
S11309C089E60E94700446E967E289E60E947004A1
S11309D040E26AE689E60E94700481E005C080E096
S11309E003C080E001C080E0DF91CF910895CF92F1
S11309F0DF92EF92FF921F93CF93DF93CDB7DEB7D1
S1130A0064970FB6F894DEBF0FBECDBF6C01CE0164
S1130A1001967C011EE4612F89E60E945504F701CA
S1130A2081937F0111501A33B1F78F859889F601AC
S1130A30958384838F8198859387828789819A811E
S1130A40918B808B89899A899383828389859A85FE
S1130A50918780878B819C81978786878B899C89E6
S1130A60918380838B859C85978386838D819E81EA
S1130A709587848781E064960FB6F894DEBF0FBE35
S1130A80CDBFDF91CF911F91FF90EF90DF90CF907A
S1130A9008951F93CF93DF93182FD62FC42F0E944E
S1130AA0EB0394EA9093BC00ECEBF0E09081992383
S1130AB0ECF790E59093BB0094E89093BC00ECEBCA
S1130AC0F0E090819923ECF79091B900987F9032EF
S1130AD029F484E98093BC0080E02DC081E08093F8
S1130AE0BB0084E88093BC00ECEBF0E09081992398
S1130AF0ECF71093BB0084E88093BC00ECEBF0E0CF
S1130B0080818823ECF7D093BB0084E88093BC00F9
S1130B10ECEBF0E080818823ECF7C093BB0084E821
S1130B208093BC00ECEBF0E080818823ECF784E94F
S1130B308093BC0081E0DF91CF911F910895CF9302
S1130B40DF939C0184EA8093BC00ECEBF0E090819D
S1130B509923ECF781E58093BB0084E88093BC0083
S1130B60ECEBF0E090819923ECF78091B900887F59
S1130B70883429F484E98093BC0080E041C084EC8B
S1130B808093BC00ECEBF0E090819923ECF740916A
S1130B90BB00461309C0842F90E00197181619066C
S1130BA044F040E050E01AC084E98093BC0080E047
S1130BB027C0D90150E041505109B901640F751F94
S1130BC0ECEBF0E084ECCBEBD0E0808390819923D4
S1130BD0ECF798819D93A617B707B9F784E880933B
S1130BE0BC00ECEBF0E090819923ECF78091BB0022
S1130BF0F901E40FF51F808384E98093BC0081E050
S1130C00DF91CF91089581E08093D70080EA8093AB
S1130C10D80082E189BD09B400FEFDCF80E980934C
S1130C20D8001092E00010923B01109238018CE041
S1130C308093E2007894089580913B010895CF93C6
S1130C40DF9390913B01992309F44CC09FB7F8942A
S1130C5024E02093E90020913901222349F02091D6
S1130C60E80025FD03C09FBF8FEF41C010923901FA
S1130C703091E400375E2091E80025FD24C09FBF39
S1130C809091E400931781F090913B01992361F1D5
S1130C90A9EEB0E044E0E8EEF0E0C4EED0E00DC030
S1130CA09FBF9881931305C081E0809339018FEF32
S1130CB01EC090913B019923C9F09FB7F8944C93BF
S1130CC0208125FFEDCF8093F1008091E80085FD20
S1130CD003C08AE38093E80085E080933A019FBFD4
S1130CE080E005C08FEF03C08FEF01C08FEFDF916D
S1130CF0CF9108951F920F920FB60F9211248F93E4
S1130D009F93EF93FF93E1EEF0E08081108283FFE5
S1130D1011C01092E90091E09093EB001092EC0066
S1130D2092E19093ED0098E09093F00010923B01D3
S1130D301092380182FF13C080913B01882379F01F
S1130D4080913A01882359F0815080933A018111AE
S1130D5006C084E08093E9008AE38093E800FF9171
S1130D60EF919F918F910F900FBE0F901F90189548
S1130D701F920F920FB60F9211240F931F932F936C
S1130D803F934F935F936F937F938F939F93AF930F
S1130D90BF93CF93DF93EF93FF931092E900809179
S1130DA0E80083FF4CC1E1EFF0E0608180812081A5
S1130DB0908130E0392B4081908150E0592B708133
S1130DC0C08192EF9093E800863009F058C004C0C7
S1130DD081E28093EB003AC166E086EB90E0FC018F
S1130DE0A591B4912A173B0711F0079623C0FC0183
S1130DF03296A591B4914A175B0711F007961AC071
S1130E00FC01349645915491FC0136962491872F28
S1130E1090E09C2B8F3F910519F010F08FEF90E03C
S1130E20821708F4282FA8EEB0E070E16EEFC1EF4E
S1130E30D0E003C0615099F6CBCF8C91982F957078
S1130E40E1F382FD03C1322F213108F0372F332320
S1130E5009F4F9C0FA01832F949198838150319653
S1130E608111FACF8FEF830F90E00196480F591F3D
S1130E70231B6C932111E1CF3031F9F2E7C08530A7
S1130E8061F48EEF8093E800E8EEF0E0808180FF6B
S1130E90FDCF20682093E300D9C0893009F035C024
S1130EA06111CDC020933B011092380110923A0198
S1130EB08EEF8093E80081E02FE531E0C9EED0E0C9
S1130EC0ABEEB0E00CEE10E06DEE70E08883A901AB
S1130ED04F5F5F4FF90194919C93992361F0FA015C
S1130EE04491F8014083F901329694912D5F3F4F6C
S1130EF0FB01908301C09A018F5F853039F7EAEED8
S1130F00F0E08EE180831082A1C0883081F46038E3
S1130F1009F095C0E8EEF0E0808180FFFDCF80917C
S1130F203B018093F1008EEF8093E8008FC0813203
S1130F30B9F4613A09F083C0E8EEF0E0808180FF03
S1130F40FDCFE6E0F1E02DE031E0A1EFB0E08191EA
S1130F508C93E217F307D9F78EEF8093E80076C0FD
S1130F608032D1F4613209F06AC0E8EEF0E08081A9
S1130F7082FFFDCFE6E0F1E02DE031E0A1EFB0E04B
S1130F808C918193E217F307D9F7E8EEF0E08BEF49
S1130F9080838EEF80835AC0823271F4613209F00B
S1130FA04EC020933801E8EEF0E0808180FFFDCF51
S1130FB08EEF8093E8004AC081111AC0E8EEF0E099
S1130FC0808180FFFDCF623851F4E9EEF0E0408388
S1130FD08091EB0085FB882780F9108201C080E0B6
S1130FE0E1EFF0E0808310828EEF8093E8002EC062
S1130FF0982F9D7F913019F5623009F5232BF9F470
S11310004F779FEF940F9430D0F49EEF9093E800C5
S11310104093E900833021F481E28093EB0016C011
S113102089E18093EB0081E090E002C0880F991F72
S11310304A95E2F7EAEEF0E08083108207C081E28D
S11310408093EB0003C06C932111F7CEFF91EF91D5
S1131050DF91CF91BF91AF919F918F917F916F91CC
S11310605F914F913F912F911F910F910F900FBE60
S11310700F901F9018950F931F93CF938C010F5FC0
S11310801F4FFC01C491CC2371F0CA3019F48DE0D8
S11310900E941F068C2F0E941F06F801C4910F5F47
S11310A01F4FC111F2CFCF911F910F910895EF926D
S11310B0FF920F931F93CF93DF93CDB7DEB727979C
S11310C00FB6F894DEBF0FBECDBF8E010F5F1F4F6A
S11310D027E0F80111922A95E9F74AE0B8010E9445
S11310E01F0B7E01F8E0EF0EF11CF80181918F01D6
S11310F081110E941F060E151F05B9F727960FB61A
S1131100F894DEBF0FBECDBFDF91CF911F910F9139
S1131110FF90EF9008955058BB27AA270E94A30878
S11311200C941D0A0E940F0A38F00E94160A20F03F
S113113039F49F3F19F426F40C940C0A0EF4E0954C
S1131140E7FB0C94060AE92F0E942E0A58F3BA17FB
S1131150620773078407950720F079F4A6F50C94C9
S1131160500A0EF4E0950B2EBA2FA02D0B01B901F5
S113117090010C01CA01A0011124FF27591B99F009
S1131180593F50F4503E68F11A16F040A22F232F15
S1131190342F4427585FF3CF469537952795A79565
S11311A0F0405395C9F77EF41F16BA0B620B730B0C
S11311B0840BBAF09150A1F0FF0FBB1F661F771F7D
S11311C0881FC2F70EC0BA0F621F731F841F48F432
S11311D0879577956795B795F7959E3F08F0B0CFBB
S11311E09395880F08F09927EE0F979587950895A2
S11311F00E94E20908F481E008950E9411090C9408
S11312001D0A0E94160A58F00E940F0A40F029F4A1
S11312105F3F29F00C94060A51110C94510A0C9466
S11312200C0A0E942E0A68F39923B1F3552391F313
S1131230951B550BBB27AA2762177307840738F041
S11312409F5F5F4F220F331F441FAA1FA9F335D09E
S11312500E2E3AF0E0E832D091505040E695001C52
S1131260CAF72BD0FE2F29D0660F771F881FBB1F0C
S1131270261737074807AB07B0E809F0BB0B802DEA
S1131280BF01FF2793585F4F3AF09E3F510578F016
S11312900C94060A0C94510A5F3FE4F3983ED4F38D
S11312A0869577956795B795F7959F5FC9F7880FEA
S11312B0911D9695879597F90895E1E0660F771F3C
S11312C0881FBB1F621773078407BA0720F0621BCD
S11312D0730B840BBA0BEE1F88F7E09508950E94F8
S11312E076096894B1110C94510A08950E94360A43
S11312F088F09F5798F0B92F9927B751B0F0E1F0D3
S1131300660F771F881F991F1AF0BA95C9F714C082
S1131310B13091F00E94500AB1E008950C94500A43
S1131320672F782F8827B85F39F0B93FCCF38695BB
S113133077956795B395D9F73EF490958095709518
S113134061957F4F8F4F9F4F0895E89409C097FB95
S11313503EF490958095709561957F4F8F4F9F4F88
S11313609923A9F0F92F96E9BB279395F6958795CC
S113137077956795B795F111F8CFFAF4BB0F11F48F
S113138060FF1BC06F5F7F4F8F4F9F4F16C0882336
S113139011F096E911C0772321F09EE8872F762F6C
S11313A005C0662371F096E8862F70E060E02AF0AD
S11313B09A95660F771F881FDAF7880F9695879599
S11313C097F90895990F0008550FAA0BE0E8FEEF6E
S11313D016161706E807F907C0F012161306E407F5
S11313E0F50798F0621B730B840B950B39F40A26EE
S11313F061F0232B242B252B21F408950A2609F4CC
S1131400A140A6958FEF811D811D089597F99F67CF
S113141080E870E060E008959FEF80EC0895002478
S11314200A941616170618060906089500240A9445
S113143012161306140605060895092E0394000CCB
S113144011F4882352F0BB0F40F4BF2B11F460FF5A
S113145004C06F5F7F4F8F4F9F4F089557FD905883
S1131460440F551F59F05F3F71F04795880F97FB64
S1131470991F61F09F3F79F087950895121613061E
S11314801406551FF2CF4695F1DF08C0161617064D
S11314901806991FF1CF8695710561050894089582
S11314A0E894BB2766277727CB0197F908950E9414
S11314B06A0A0C941D0A0E940F0A38F00E94160A48
S11314C020F0952311F00C94060A0C940C0A1124B4
S11314D00C94510A0E942E0A70F3959FC1F3950F44
S11314E050E0551F629FF001729FBB27F00DB11DA4
S11314F0639FAA27F00DB11DAA1F649F6627B00D34
S1131500A11D661F829F2227B00DA11D621F739F1C
S1131510B00DA11D621F839FA00D611D221F749F2A
S11315203327A00D611D231F849F600D211D822F71
S1131530762F6A2F11249F5750409AF0F1F0882398
S11315404AF0EE0FFF1FBB1F661F771F881F9150C5
S11315505040A9F79E3F510580F00C94060A0C9464
S1131560510A5F3FE4F3983ED4F3869577956795E7
S1131570B795F795E7959F5FC1F7FE2B880F911DEF
S11315809695879597F9089519F416F40C940C0A16
S11315900C940A0B0E94360AB8F39923C9F3B6F3E4
S11315A09F57550B87FF0E94180B0024A0E640EAC2
S11315B0900180585695979528F4805C660F771FA4
S11315C0881F20F026173707480730F4621B730B77
S11315D0840B202931294A2BA6951794079420259A
S11315E031254A2758F7660F771F881F20F02617E2
S11315F03707480730F4620B730B840B200D311D41
S1131600411DA09581F7B901842F9158880F9695B3
S1131610879508959F3F31F0915020F487957795F1
S11316206795B795880F911D9695879597F90895B5
S113163091505040660F771F881FD2F70895BB273B
S11316404A3031F4992322F4BDE2909581959F4F5D
S11316500C942B0BBB27FB015527AA27880F991F36
S1131660AA1FA41710F0A41B83955051B9F7A05DCD
S1131670AA3308F0A95DA193009779F7B111B1934A
S11316801192CB010C94440BDC01FC01672F719186
S11316907723E1F7329704C07C916D937083629154
S10F16A0AE17BF07C8F30895F894FFCFFD
S11116ACCDCCCC3E010100E10000000008009E
S9030000FC
