S00F00006163726F6261742E7372656339
S11300000C94B0000C94CD000C94CD000C94CD0055
S11300100C94CD000C94CD000C94CD000C94CD0028
S11300200C94CD000C94CD000C9445030C948303E4
S11300300C94CD000C94CD000C94CD000C94CD0008
S11300400C94CD000C94CD000C94CD000C94CD00F8
S11300500C94CD000C94CD000C94CD000C94CD00E8
S11300600C94CD000C94CD000C94CD000C94CD00D8
S11300700C94CD000C94CD000C94CD000C94CD00C8
S11300800C94CD000C94CD000C94CD000C94CD00B8
S11300900C94CD000C94CD000C94CD000C94CD00A8
S11300A00C94CD000C94CD000C94CD000001000004
S11300B04301120002000000014300030000FC00A1
S11300C00401030904E8001202030904E000060322
S11300D0030904D60008080334003100300000008E
S11300E006034D003200000012034A002E002000D7
S11300F04600690065006E00650000000403090401
S113010009024300020100C0320904000001020296
S11301100100052400100105240101010424020644
S113012005240600010705820310004009040100AC
S1130130020A0000000705030240000007058402CC
S11301404000001201000202000010C0167A0400F0
S113015001010203010001C1120180360181360050
S113016011241FBECFEFDAE0DEBFCDBF11E0A0E067
S1130170B1E0ECE4FDE002C005900D92AA30B107B5
S1130180D9F721E0AAE0B1E001C01D92A532B2077F
S1130190E1F70E946A010C94A4060C940000E1E6C5
S11301A0F0E080E8808383E08083509851985298EF
S11301B060910001809101010E946A028823C1F3C9
S11301C0789408950E9429030E9442038823E1F34E
S11301D008958F929F92AF92BF92CF92DF92EF9247
S11301E0FF92CF93DF936B017C01EA01B901330FD6
S11301F0880B990B0E94AB05A70196010E94370654
S11302004B015C01A701960160E070E080E89FE388
S11302100E9406056B017C01BE01DD0F880B990B62
S11302200E94AB059B01AC01C701B6010E943706D1
S11302309B01AC01C501B4010E9407050E9473052E
S1130240CB01DF91CF91FF90EF90DF90CF90BF90E3
S1130250AF909F908F9008958F929F92AF92BF928C
S1130260CF92DF92EF92FF920F931F93CF93DF937E
S11302706B017C01E901BA01550F880B990B0E94AF
S1130280AB05A70196010E9437064B015C01B8013A
S11302906C1B7D0B072E000C880B990B0E94AB0581
S11302A0A70196010E9437069B01AC01C501B40168
S11302B00E9407050E947305CB01DF91CF911F9126
S11302C00F91FF90EF90DF90CF90BF90AF909F90F1
S11302D08F9008956E9A76980E94CF000E94E20053
S11302E06A9A7298D12CE12C80E191E00E94D702A5
S11302F0882309F44BC06A9A72986E9A769AC0E180
S1130300D1E02881398140910E0150910F016AE9B1
S113031079E989E59FE30E94E9008858910990935F
S11303200F0180930E012C813D8140910C0150916D
S11303300D016AE979E989E59FE30E94E90087965E
S113034090930D0180930C01F884C98540910A01B2
S113035050910B012F2D3C2F63E373E383E79FE35D
S11303600E94E900AC01495751090F2D1C2F2D2D76
S11303703E2D60E070E080E09FE30E942C019093AA
S11303800B0180930A01DF2CEC2EAECF6A9A729A8D
S11303906E9A7698A9CF589A599A5A9A8CE0809373
S11303A0B800E9E6F0E080818062808380818F7EFE
S11303B08083EA9A7894089584E88093BC00ECEBF7
S11303C0F0E080818823ECF78091BB00089520E061
S11303D030E0ECEBF0E08081882334F02F5F3F4F76
S11303E0293E83E03807B9F781E0283E334009F419
S11303F080E008958093BB0084E88093BC000E9451
S1130400E701882319F08091B900887F0895CF937C
S1130410DF93C82FD62F84EA8093BC000E94E701A3
S1130420811104C094E99093BC001CC0DD2361F0E9
S11304308C2F880F8F5F0E94FA01883481F484E93D
S11304408093BC0080E00EC08C2F880F0E94FA01BC
S1130450803239F484E98093BC0080E003C081E0F9
S113046001C081E0DF91CF910895CF93DF93C82F2E
S1130470D62F60E00E940702882379F08D2F0E9416
S1130480FA01882351F084E98093BC0061E08C2F49
S11304900E94070281110E94DC01DF91CF9108952F
S11304A0CF93DF93C62FD42F60E00E9407028823E6
S11304B071F08C2F0E94FA01882349F08D2F0E943D
S11304C0FA01882321F084E98093BC0081E0DF9164
S11304D0CF910895CF93DF93843008F060C06430E7
S11304E008F05FC0D62FC82F0E94CB012FE58AEEFB
S11304F090E0215080409040E1F700C0000065E7A3
S113050089E60E943502883609F04DC041E06BE669
S113051089E60E9450024C2F440F440F440F6CE1B3
S113052089E60E9450024D2F440F440F440F6BE1A3
S113053089E60E94500242E067E389E60E94500285
S113054040E062E08EE10E94500240E067E389E609
S11305500E9450024EE164E389E60E94500241E0A9
S113056067E689E60E9450024DE164E289E60E9452
S113057050024EE965E289E60E94500243E066E2D9
S113058089E60E94500246E967E289E60E94500229
S113059040E26AE689E60E94500281E005C080E0FC
S11305A003C080E001C080E0DF91CF910895CF9235
S11305B0DF92EF92FF921F93CF93DF93CDB7DEB715
S11305C064970FB6F894DEBF0FBECDBF6C01CE01A9
S11305D001967C011EE4612F89E60E943502F70131
S11305E081937F0111501A33B1F78F859889F601F1
S11305F0958384838F8198859387828789819A8163
S1130600918B808B89899A899383828389859A8542
S1130610918780878B819C81978786878B899C892A
S1130620918380838B859C85978386838D819E812E
S11306309587848781E064960FB6F894DEBF0FBE79
S1130640CDBFDF91CF911F91FF90EF90DF90CF90BE
S1130650089581E08093D70080EA8093D80082E1F6
S113066089BD09B400FEFDCF80E98093D8001092C3
S1130670E00010922401109222018CE08093E200A9
S1130680789408958091240108951F920F920FB6D3
S11306900F9211248F939F93EF93FF93E1EEF0E079
S11306A08081108283FF11C01092E90091E0909341
S11306B0EB001092EC0092E19093ED0098E090939F
S11306C0F000109224011092220182FF13C0809145
S11306D02401882379F080912301882359F08150E3
S11306E080932301811106C084E08093E9008AE3AA
S11306F08093E800FF91EF919F918F910F900FBE2F
S11307000F901F9018951F920F920FB60F921124FD
S11307100F931F932F933F934F935F936F937F9305
S11307208F939F93AF93BF93CF93DF93EF93FF93F5
S11307301092E9008091E80083FF4CC1E1EFF0E002
S1130740608180812081908130E0392B40819081CB
S113075050E0592B7081C08192EF9093E80086306D
S113076009F058C004C081E28093EB003AC166E00E
S11307708CEA90E0FC01A591B4912A173B0711F093
S1130780079623C0FC013296A591B4914A175B07E2
S113079011F007961AC0FC01349645915491FC015E
S11307A036962491872F90E09C2B8F3F910519F06A
S11307B010F08FEF90E0821708F4282FA8EEB0E035
S11307C070E16EEFC1EFD0E003C0615099F6CBCF7A
S11307D08C91982F9570E1F382FD03C1322F213162
S11307E008F0372F332309F4F9C0FA01832F9491C9
S11307F09883815031968111FACF8FEF830F90E067
S11308000196480F591F231B6C932111E1CF3031FE
S1130810F9F2E7C0853061F48EEF8093E800E8EEEA
S1130820F0E0808180FFFDCF20682093E300D9C0F1
S1130830893009F035C06111CDC020932401109294
S11308402201109223018EEF8093E80081E025E5D8
S113085031E0C9EED0E0ABEEB0E00CEE10E06DEEAE
S113086070E08883A9014F5F5F4FF90194919C93D5
S1130870992361F0FA014491F8014083F901329619
S113088094912D5F3F4FFB01908301C09A018F5FCC
S1130890853039F7EAEEF0E08EE180831082A1C062
S11308A0883081F4603809F095C0E8EEF0E080818A
S11308B080FFFDCF809124018093F1008EEF80931F
S11308C0E8008FC08132B9F4613A09F083C0E8EEE0
S11308D0F0E0808180FFFDCFE2E0F1E029E031E04B
S11308E0A1EFB0E081918C93E217F307D9F78EEF73
S11308F08093E80076C08032D1F4613209F06AC096
S1130900E8EEF0E0808182FFFDCFE2E0F1E029E053
S113091031E0A1EFB0E08C918193E217F307D9F7AE
S1130920E8EEF0E08BEF80838EEF80835AC0823252
S113093071F4613209F04EC020932201E8EEF0E038
S1130940808180FFFDCF8EEF8093E8004AC0811143
S11309501AC0E8EEF0E0808180FFFDCF623851F4E8
S1130960E9EEF0E040838091EB0085FB882780F975
S1130970108201C080E0E1EFF0E0808310828EEF0E
S11309808093E8002EC0982F9D7F913019F5623036
S113099009F5232BF9F44F779FEF940F9430D0F49B
S11309A09EEF9093E8004093E900833021F481E2C4
S11309B08093EB0016C089E18093EB0081E090E026
S11309C002C0880F991F4A95E2F7EAEEF0E08083AF
S11309D0108207C081E28093EB0003C06C93211165
S11309E0F7CEFF91EF91DF91CF91BF91AF919F919E
S11309F08F917F916F915F914F913F912F911F91B3
S1130A000F910F900FBE0F901F9018955058BB2751
S1130A10AA270E941E050C94FD050E94EF0538F0DC
S1130A200E94F60520F039F49F3F19F426F40C9443
S1130A30EC050EF4E095E7FB0C94E605E92F0E9423
S1130A400E0658F3BA17620773078407950720F058
S1130A5079F4A6F50C9430060EF4E0950B2EBA2F1B
S1130A60A02D0B01B90190010C01CA01A0011124B0
S1130A70FF27591B99F0593F50F4503E68F11A165C
S1130A80F040A22F232F342F4427585FF3CF4695ED
S1130A9037952795A795F0405395C9F77EF41F160F
S1130AA0BA0B620B730B840BBAF09150A1F0FF0FD9
S1130AB0BB1F661F771F881FC2F70EC0BA0F621FC5
S1130AC0731F841F48F4879577956795B795F795B5
S1130AD09E3F08F0B0CF9395880F08F09927EE0F4A
S1130AE09795879508950E947A056894B1110C949E
S1130AF0310608950E94160688F09F5798F0B92F82
S1130B009927B751B0F0E1F0660F771F881F991F3E
S1130B101AF0BA95C9F714C0B13091F00E943006AA
S1130B20B1E008950C943006672F782F8827B85FBA
S1130B3039F0B93FCCF3869577956795B395D9F796
S1130B403EF490958095709561957F4F8F4F9F4FA0
S1130B500895E89409C097FB3EF4909580957095AC
S1130B6061957F4F8F4F9F4F9923A9F0F92F96E9F5
S1130B70BB279395F695879577956795B795F1116A
S1130B80F8CFFAF4BB0F11F460FF1BC06F5F7F4F07
S1130B908F4F9F4F16C0882311F096E911C0772319
S1130BA021F09EE8872F762F05C0662371F096E822
S1130BB0862F70E060E02AF09A95660F771F881FF1
S1130BC0DAF7880F9695879597F9089597F99F67AF
S1130BD080E870E060E008959FEF80EC08950024C1
S1130BE00A941616170618060906089500240A948E
S1130BF012161306140605060895092E0394000C14
S1130C0011F4882352F0BB0F40F4BF2B11F460FFA2
S1130C1004C06F5F7F4F8F4F9F4F089557FD9058CB
S1130C20440F551F59F05F3F71F04795880F97FBAC
S1130C30991F61F09F3F79F0879508951216130666
S1130C401406551FF2CF4695F1DF08C01616170695
S1130C501806991FF1CF86957105610508940895CA
S1130C60E894BB2766277727CB0197F908950E945C
S1130C704A060C94FD050E94EF0538F00E94F60523
S1130C8020F0952311F00C94E6050C94EC05112446
S1130C900C9431060E940E0670F3959FC1F3950FD4
S1130CA050E0551F629FF001729FBB27F00DB11DEC
S1130CB0639FAA27F00DB11DAA1F649F6627B00D7C
S1130CC0A11D661F829F2227B00DA11D621F739F65
S1130CD0B00DA11D621F839FA00D611D221F749F73
S1130CE03327A00D611D231F849F600D211D822FBA
S1130CF0762F6A2F11249F5750409AF0F1F08823E1
S1130D004AF0EE0FFF1FBB1F661F771F881F91500D
S1130D105040A9F79E3F510580F00C94E6050C94D1
S1130D2031065F3FE4F3983ED4F386957795679553
S1130D30B795F795E7959F5FC1F7FE2B880F911D37
S10F0D409695879597F90895F894FFCFD5
S10D0D4C010100E1000000000800AE
S9030000FC
