S00F00006163726F6261742E7372656339
S11300000C94B0000C94CD000C94CD000C94CD0055
S11300100C94CD000C94CD000C94CD000C94CD0028
S11300200C94CD000C94CD000C94BB020C94F902FA
S11300300C94CD000C94CD000C94CD000C94CD0008
S11300400C94CD000C94CD000C94CD000C94CD00F8
S11300500C94CD000C94CD000C94CD000C94CD00E8
S11300600C94CD000C94CD000C94CD000C94CD00D8
S11300700C94CD000C94CD000C94CD000C94CD00C8
S11300800C94CD000C94CD000C94CD000C94CD00B8
S11300900C94CD000C94CD000C94CD000C94CD00A8
S11300A00C94CD000C94CD000C94CD000001000004
S11300B04301120002000000014300030000FC00A1
S11300C00401030904E8001202030904E000060322
S11300D0030904D60008080334003100300000008E
S11300E006034D003200000012034A002E002000D7
S11300F04600690065006E00650000000403090401
S113010009024300020100C0320904000001020296
S11301100100052400100105240101010424020644
S113012005240600010705820310004009040100AC
S1130130020A0000000705030240000007058402CC
S11301404000001201000202000010C0167A0400F0
S113015001010203010001C1120180360181360050
S113016011241FBECFEFDAE0DEBFCDBF11E0A0E067
S1130170B1E0ECEFF8E002C005900D92A830B107B1
S1130180D9F725E0A8E0B1E001C01D92A13DB20776
S1130190E1F70E94E9000C947C040C940000E1E671
S11301A0F0E080E8808383E08083509851985298EF
S11301B060911C0180911D010E94E0018823C1F31C
S11301C0789408950E949F020E94B8028823E1F364
S11301D008956E9A76980E94CF000E94E2006A9A6F
S11301E072988AE091E00E944D02882309F444C089
S11301F06A9A72986E9A769A809108019091090190
S1130200FC01EE0FFF1FE80FF91FEE0FFF1FEE0FAB
S1130210FF1FEF5DFE4FAAE0B1E02D913C911197D5
S11302203183208312962D913C911397338322833B
S113023014962D913C9115973583248316962D9110
S11302403C9117973783268318962D913C911997E3
S1130250318720871A962D913C911B9733872287EB
S11302600196909309018093080187EA91E601972A
S1130270F1F700C00000B5CF6A9A729A6E9A769828
S1130280B0CF589A599A5A9A8CE08093B800E9E60C
S1130290F0E080818062808380818F7E8083EA9A0F
S11302A07894089584E88093BC00ECEBF0E08081BE
S11302B08823ECF78091BB00089520E030E0ECEB5C
S11302C0F0E08081882334F02F5F3F4F293E83E0A4
S11302D03807B9F781E0283E334009F480E00895F7
S11302E08093BB0084E88093BC000E945D01882356
S11302F019F08091B900887F0895CF93DF93C82FB8
S1130300D62F84EA8093BC000E945D01811104C051
S113031094E99093BC001CC0DD2361F08C2F880FFE
S11303208F5F0E947001883481F484E98093BC005B
S113033080E00EC08C2F880F0E947001803239F447
S113034084E98093BC0080E003C081E001C081E0C7
S1130350DF91CF910895CF93DF93C82FD62F60E01C
S11303600E947D01882379F08D2F0E9470018823DB
S113037051F084E98093BC0061E08C2F0E947D01E0
S113038081110E945201DF91CF910895CF93DF93A1
S1130390C62FD42F60E00E947D01882371F08C2F3A
S11303A00E947001882349F08D2F0E9470018823D8
S11303B021F084E98093BC0081E0DF91CF9108951E
S11303C0CF93DF93843008F060C0643008F05FC0DE
S11303D0D62FC82F0E9441012FE58AEE90E02150CC
S11303E080409040E1F700C0000065E789E60E9484
S11303F0AB01883609F04DC041E06BE689E60E9406
S1130400C6014C2F440F440F440F6CE189E60E944F
S1130410C6014D2F440F440F440F6BE189E60E943F
S1130420C60142E067E389E60E94C60140E062E05B
S11304308EE10E94C60140E067E389E60E94C6019E
S11304404EE164E389E60E94C60141E067E689E67D
S11304500E94C6014DE164E289E60E94C6014EE9AC
S113046065E289E60E94C60143E066E289E60E94ED
S1130470C60146E967E289E60E94C60140E26AE6EF
S113048089E60E94C60181E005C080E003C080E0E7
S113049001C080E0DF91CF910895CF92DF92EF9277
S11304A0FF921F93CF93DF93CDB7DEB764970FB658
S11304B0F894DEBF0FBECDBF6C01CE0101967C0166
S11304C01EE4612F89E60E94AB01F70181937F014D
S11304D011501A33B1F78F859889F6019583848377
S11304E08F8198859387828789819A81918B808B6C
S11304F089899A899383828389859A85918780875C
S11305008B819C81978786878B899C899183808343
S11305108B859C85978386838D819E81958784872F
S113052081E064960FB6F894DEBF0FBECDBFDF91B5
S1130530CF911F91FF90EF90DF90CF90089581E0CD
S11305408093D70080EA8093D80082E189BD09B402
S113055000FEFDCF80E98093D8001092E000109255
S1130560200110921E018CE08093E200789408959B
S11305708091200108951F920F920FB60F921124BB
S11305808F939F93EF93FF93E1EEF0E080811082CD
S113059083FF11C01092E90091E09093EB00109258
S11305A0EC0092E19093ED0098E09093F0001092AB
S11305B0200110921E0182FF13C080912001882324
S11305C079F080911F01882359F0815080931F0195
S11305D0811106C084E08093E9008AE38093E800F7
S11305E0FF91EF919F918F910F900FBE0F901F90ED
S11305F018951F920F920FB60F9211240F931F9309
S11306002F933F934F935F936F937F938F939F9316
S1130610AF93BF93CF93DF93EF93FF931092E900CF
S11306208091E80083FF4CC1E1EFF0E060818081BC
S11306302081908130E0392B4081908150E0592B0A
S11306407081C08192EF9093E800863009F058C021
S113065004C081E28093EB003AC166E08CEA90E04A
S1130660FC01A591B4912A173B0711F0079623C00A
S1130670FC013296A591B4914A175B0711F00796D5
S11306801AC0FC01349645915491FC01369624918C
S1130690872F90E09C2B8F3F910519F010F08FEF7E
S11306A090E0821708F4282FA8EEB0E070E16EEF16
S11306B0C1EFD0E003C0615099F6CBCF8C91982F55
S11306C09570E1F382FD03C1322F213108F0372FF9
S11306D0332309F4F9C0FA01832F9491988381504C
S11306E031968111FACF8FEF830F90E00196480F76
S11306F0591F231B6C932111E1CF3031F9F2E7C06C
S1130700853061F48EEF8093E800E8EEF0E08081BC
S113071080FFFDCF20682093E300D9C0893009F021
S113072035C06111CDC02093200110921E0110929A
S11307301F018EEF8093E80081E025E531E0C9EEEA
S1130740D0E0ABEEB0E00CEE10E06DEE70E088832C
S1130750A9014F5F5F4FF90194919C93992361F034
S1130760FA014491F8014083F901329694912D5F86
S11307703F4FFB01908301C09A018F5F853039F7A9
S1130780EAEEF0E08EE180831082A1C0883081F42B
S1130790603809F095C0E8EEF0E0808180FFFDCF7D
S11307A0809120018093F1008EEF8093E8008FC048
S11307B08132B9F4613A09F083C0E8EEF0E0808157
S11307C080FFFDCFE0E0F1E027E031E0A1EFB0E011
S11307D081918C93E217F307D9F78EEF8093E800A9
S11307E076C08032D1F4613209F06AC0E8EEF0E0FC
S11307F0808182FFFDCFE0E0F1E027E031E0A1EF6E
S1130800B0E08C918193E217F307D9F7E8EEF0E0BA
S11308108BEF80838EEF80835AC0823271F4613211
S113082009F04EC020931E01E8EEF0E0808180FFC5
S1130830FDCF8EEF8093E8004AC081111AC0E8EE24
S1130840F0E0808180FFFDCF623851F4E9EEF0E002
S113085040838091EB0085FB882780F9108201C0DA
S113086080E0E1EFF0E0808310828EEF8093E80077
S11308702EC0982F9D7F913019F5623009F5232BF6
S1130880F9F44F779FEF940F9430D0F49EEF909348
S1130890E8004093E900833021F481E28093EB0087
S11308A016C089E18093EB0081E090E002C0880FDC
S11308B0991F4A95E2F7EAEEF0E08083108207C0C0
S11308C081E28093EB0003C06C932111F7CEFF917A
S11308D0EF91DF91CF91BF91AF919F918F917F91D4
S11308E06F915F914F913F912F911F910F910F90B5
S10F08F00FBE0F901F901895F894FFCFD6
S10B08FC00E100000000080007
S9030000FC
