:100000000C94B5000C94D2000C94D2000C94D20045
:100010000C94D2000C94D2000C94D2000C94D20018
:100020000C94D2000C94D2000C94C3040C940105DF
:100030000C94D2000C94D2000C94D2000C94D200F8
:100040000C94D2000C94D2000C94D2000C94D200E8
:100050000C94D2000C94D2000C94D2000C94D200D8
:100060000C94D2000C94D2000C94D2000C94D200C8
:100070000C94D2000C94D2000C94D2000C94D200B8
:100080000C94D2000C94D2000C94D2000C94D200A8
:100090000C94D2000C94D2000C94D2000C94D20098
:1000A0000C94D2000C94D2000C94D2000A00616E21
:1000B000676C653D2000000100004D011200020048
:1000C000000A01430003000006010401030904F2D1
:1000D000001202030904EA000603030904E0000811
:1000E0000803340031003000000006034D003200E8
:1000F000000012034A002E0020004600690065003F
:100100006E006500000004030904090243000201B7
:1001100000C03209040000010202010005240010A1
:10012000010524010101042402060524060001073B
:1001300005820310004009040100020A00000007C4
:100140000503024000000705840240000012010080
:100150000202000010C0167A04000101020301002F
:1001600001C1120180360181360011241FBECFEF7C
:10017000DAE0DEBFCDBF11E0A0E0B1E0ECEEF2E1ED
:1001800002C005900D92A031B107D9F721E0A0E19E
:10019000B1E001C01D92AC32B207E1F70E94DF016D
:1001A0000C9474090C940000E1E6F0E080E8808390
:1001B00083E080835098519852984698269A3E9AA8
:1001C00060910601809107010E948D038823C1F38D
:1001D000789408950E944C040E9465048823E1F3FA
:1001E0000895E1E8F0E080818B7F808380818D7FBE
:1001F0008083808181608083808180618083808131
:1002000088608083E0E8F0E0808182608083808184
:100210008160808380818062808380818F7E808303
:10022000E8E8F0E088E893E1918380836081718160
:1002300080E090E00E94E9072091020130910301E3
:1002400040910401509105010E9477080E94BA076D
:1002500070938B0060938A000895E1E9F0E080815B
:100260008B7F808380818D7F80838081816080838C
:1002700080818F7E8083808188608083E0E9F0E0E8
:1002800080818D7F808380818E7F808380ED97E069
:10029000909399008093980008958F929F92AF92C7
:1002A000BF92CF92DF92EF92FF92CF93DF936B01D9
:1002B0007C01EA01B901330F880B990B0E94EB070F
:1002C000A70196010E9477084B015C01A7019601E6
:1002D00060E070E080E89FE30E94D4066B017C013F
:1002E000BE01DD0F880B990B0E94EB079B01AC014F
:1002F000C701B6010E9477089B01AC01C501B4019A
:100300000E94D5060E94B307CB01DF91CF91FF90E9
:10031000EF90DF90CF90BF90AF909F908F90089517
:100320008F929F92AF92BF92CF92DF92EF92FF9205
:100330000F931F93CF93DF936B017C01E901BA0107
:10034000550F880B990B0E94EB07A70196010E949D
:1003500077084B015C01B8016C1B7D0B072E000C6C
:10036000880B990B0E94EB07A70196010E94770862
:100370009B01AC01C501B4010E94D5060E94B307E0
:10038000CB01DF91CF911F910F91FF90EF90DF9004
:10039000CF90BF90AF909F908F900895CF93DF93B1
:1003A000EC018EEA90E00E948406CE010E94A00635
:1003B0008CEA90E00E948406DF91CF910895CF935C
:1003C000DF9300D000D0CDB7DEB76E9A76980E944A
:1003D000D4000E94EA000E94F1000E942D016A9A56
:1003E0007298E12CF12C212C312C612C712CAA2437
:1003F000A394B12C8091000190910101892B11F0FF
:10040000469A01C0469886E191E00E94FA0388234B
:1004100009F4B7C06A9A72986E9A769A06E111E06A
:10042000F80120813181409114015091150163E35D
:1004300073E383E39FE30E944D01885891096C01A7
:100440009093150180931401F80124813581409126
:1004500012015091130163E373E383E39FE30E946E
:100460004D0187962C019093130180931201F8019E
:10047000908481844091100150911101292D382DD3
:1004800063E373E383E79FE30E944D01AC014957A7
:100490005109092D182D262D372D6DEC7CEC8CEC97
:1004A0009DE30E9490018C019093110180931001B3
:1004B000C19B61C0B601DD0C880B990B0E94EB0754
:1004C0006B017C01B201550C880B990B0E94EB0764
:1004D0002B013C01A7019601C701B6010E947708D4
:1004E00069837A838B839C83A3019201C301B20148
:1004F0000E9477089B01AC0169817A818B819C8184
:100500000E94D5060E94EA0869837A838B839C83C4
:10051000B101330C880B990B0E94EB072B013C01B6
:10052000B801110F880B990B0E94EB072FE632E1FF
:1005300043E85AE30E9477089B01AC01C301B20172
:100540000E94D5060E94B3072B013C011B0123E347
:1005500033E345E652E4C701B6010E9477082981DA
:100560003A814B815C810E9441070E94B30772016E
:10057000E61AF70AC19AC7010E94CE01692C782CAD
:1005800004C06A9A729A6E9A7698B701FF2024F492
:10059000662777276E197F09072E000C880B990BA9
:1005A0000E94EB0720E030E044EB52E40E94410758
:1005B00060930201709303018093040190930501FD
:1005C0008F2D880F880B082E000C990B8A219B21F8
:1005D000282F20930001909301010CCF589A599A2B
:1005E0005A9A8CE08093B800E9E6F0E0808180625E
:1005F000808380818F7E8083EA9A7894089584E84E
:100600008093BC00ECEBF0E080818823ECF78091D4
:10061000BB00089520E030E0ECEBF0E0808188231F
:1006200034F02F5F3F4F293E83E03807B9F781E070
:10063000283E334009F480E008958093BB0084E8AD
:100640008093BC000E940A03882319F08091B900AE
:10065000887F0895CF93DF93C82FD62F84EA8093A5
:10066000BC000E940A03811104C094E99093BC006D
:100670001CC0DD2361F08C2F880F8F5F0E941D034B
:10068000883481F484E98093BC0080E00EC08C2F14
:10069000880F0E941D03803239F484E98093BC00E6
:1006A00080E003C081E001C081E0DF91CF91089537
:1006B000CF93DF93C82FD62F60E00E942A038823B0
:1006C00079F08D2F0E941D03882351F084E98093D7
:1006D000BC0061E08C2F0E942A0381110E94FF025E
:1006E000DF91CF910895CF93DF93C62FD42F60E091
:1006F0000E942A03882371F08C2F0E941D038823F7
:1007000049F08D2F0E941D03882321F084E98093F6
:10071000BC0081E0DF91CF910895CF93DF938430C7
:1007200008F060C0643008F05FC0D62FC82F0E9468
:10073000EE022FE58AEE90E0215080409040E1F7F4
:1007400000C0000065E789E60E945803883609F07A
:100750004DC041E06BE689E60E9473034C2F440FC5
:10076000440F440F6CE189E60E9473034D2F440F40
:10077000440F440F6BE189E60E94730342E067E394
:1007800089E60E94730340E062E08EE10E947303F9
:1007900040E067E389E60E9473034EE164E389E683
:1007A0000E94730341E067E689E60E9473034DE10E
:1007B00064E289E60E9473034EE965E289E60E94DD
:1007C000730343E066E289E60E94730346E967E249
:1007D00089E60E94730340E26AE689E60E94730399
:1007E00081E005C080E003C080E001C080E0DF91CF
:1007F000CF910895CF92DF92EF92FF921F93CF9304
:10080000DF93CDB7DEB764970FB6F894DEBF0FBEA7
:10081000CDBF6C01CE0101967C011EE4612F89E6FB
:100820000E945803F70181937F0111501A33B1F7E9
:100830008F859889F601958384838F819885938726
:10084000828789819A81918B808B89899A89938308
:10085000828389859A85918780878B819C81978700
:1008600086878B899C89918380838B859C859783E0
:1008700086838D819E819587848781E064960FB6FB
:10088000F894DEBF0FBECDBFDF91CF911F91FF90D7
:10089000EF90DF90CF90089581E08093D70080EAB9
:1008A0008093D80082E189BD09B400FEFDCF80E9C4
:1008B0008093D8001092E00010922B011092280132
:1008C0008CE08093E2007894089580912B01089544
:1008D000CF93DF9390912B01992309F44CC09FB7DC
:1008E000F89424E02093E90020912901222349F083
:1008F0002091E80025FD03C09FBF8FEF41C01092FB
:1009000029013091E400375E2091E80025FD24C0E4
:100910009FBF9091E400931781F090912B01992350
:1009200061F1A9EEB0E044E0E8EEF0E0C4EED0E022
:100930000DC09FBF9881931305C081E0809329016A
:100940008FEF1EC090912B019923C9F09FB7F894A7
:100950004C93208125FFEDCF8093F1008091E8003A
:1009600085FD03C08AE38093E80085E080932A0137
:100970009FBF80E005C08FEF03C08FEF01C08FEFF6
:10098000DF91CF9108951F920F920FB60F9211240D
:100990008F939F93EF93FF93E1EEF0E080811082BD
:1009A00083FF11C01092E90091E09093EB00109248
:1009B000EC0092E19093ED0098E09093F00010929B
:1009C0002B011092280182FF13C080912B018823F4
:1009D00079F080912A01882359F0815080932A016F
:1009E000811106C084E08093E9008AE38093E800E7
:1009F000FF91EF919F918F910F900FBE0F901F90DD
:100A000018951F920F920FB60F9211240F931F93F8
:100A10002F933F934F935F936F937F938F939F9306
:100A2000AF93BF93CF93DF93EF93FF931092E900BF
:100A30008091E80083FF4CC1E1EFF0E060818081AC
:100A40002081908130E0392B4081908150E0592BFA
:100A50007081C08192EF9093E800863009F058C011
:100A600004C081E28093EB003AC166E086EB90E03F
:100A7000FC01A591B4912A173B0711F0079623C0FA
:100A8000FC013296A591B4914A175B0711F00796C5
:100A90001AC0FC01349645915491FC01369624917C
:100AA000872F90E09C2B8F3F910519F010F08FEF6E
:100AB00090E0821708F4282FA8EEB0E070E16EEF06
:100AC000C1EFD0E003C0615099F6CBCF8C91982F45
:100AD0009570E1F382FD03C1322F213108F0372FE9
:100AE000332309F4F9C0FA01832F9491988381503C
:100AF00031968111FACF8FEF830F90E00196480F66
:100B0000591F231B6C932111E1CF3031F9F2E7C05B
:100B1000853061F48EEF8093E800E8EEF0E08081AC
:100B200080FFFDCF20682093E300D9C0893009F011
:100B300035C06111CDC020932B0110922801109275
:100B40002A018EEF8093E80081E02FE531E0C9EEC5
:100B5000D0E0ABEEB0E00CEE10E06DEE70E088831C
:100B6000A9014F5F5F4FF90194919C93992361F024
:100B7000FA014491F8014083F901329694912D5F76
:100B80003F4FFB01908301C09A018F5F853039F799
:100B9000EAEEF0E08EE180831082A1C0883081F41B
:100BA000603809F095C0E8EEF0E0808180FFFDCF6D
:100BB00080912B018093F1008EEF8093E8008FC02D
:100BC0008132B9F4613A09F083C0E8EEF0E0808147
:100BD00080FFFDCFE8E0F1E02FE031E0A1EFB0E0F1
:100BE00081918C93E217F307D9F78EEF8093E80099
:100BF00076C08032D1F4613209F06AC0E8EEF0E0EC
:100C0000808182FFFDCFE8E0F1E02FE031E0A1EF4D
:100C1000B0E08C918193E217F307D9F7E8EEF0E0AA
:100C20008BEF80838EEF80835AC0823271F4613201
:100C300009F04EC020932801E8EEF0E0808180FFAB
:100C4000FDCF8EEF8093E8004AC081111AC0E8EE14
:100C5000F0E0808180FFFDCF623851F4E9EEF0E0F2
:100C600040838091EB0085FB882780F9108201C0CA
:100C700080E0E1EFF0E0808310828EEF8093E80067
:100C80002EC0982F9D7F913019F5623009F5232BE6
:100C9000F9F44F779FEF940F9430D0F49EEF909338
:100CA000E8004093E900833021F481E28093EB0077
:100CB00016C089E18093EB0081E090E002C0880FCC
:100CC000991F4A95E2F7EAEEF0E08083108207C0B0
:100CD00081E28093EB0003C06C932111F7CEFF916A
:100CE000EF91DF91CF91BF91AF919F918F917F91C4
:100CF0006F915F914F913F912F911F910F910F90A5
:100D00000FBE0F901F9018950F931F93CF938C01D8
:100D10000F5F1F4FFC01C491CC2371F0CA3019F44E
:100D20008DE00E9468048C2F0E946804F801C49131
:100D30000F5F1F4FC111F2CFCF911F910F910895F7
:100D4000EF92FF920F931F93CF93DF93CDB7DEB750
:100D500027970FB6F894DEBF0FBECDBF8E010F5F91
:100D60001F4F27E0F80111922A95E9F74AE0B801F0
:100D70000E943F097E01F8E0EF0EF11CF80181911D
:100D80008F0181110E9468040E151F05B9F727967F
:100D90000FB6F894DEBF0FBECDBFDF91CF911F918C
:100DA0000F91FF90EF9008955058BB27AA270E94FB
:100DB000EC060C943D080E942F0838F00E9436087B
:100DC00020F039F49F3F19F426F40C942C080EF40B
:100DD000E095E7FB0C942608E92F0E944E0858F393
:100DE000BA17620773078407950720F079F4A6F510
:100DF0000C9470080EF4E0950B2EBA2FA02D0B0169
:100E0000B90190010C01CA01A0011124FF27591B4F
:100E100099F0593F50F4503E68F11A16F040A22F55
:100E2000232F342F4427585FF3CF469537952795C6
:100E3000A795F0405395C9F77EF41F16BA0B620BC5
:100E4000730B840BBAF09150A1F0FF0FBB1F661F0C
:100E5000771F881FC2F70EC0BA0F621F731F841F4F
:100E600048F4879577956795B795F7959E3F08F075
:100E7000B0CF9395880F08F09927EE0F9795879537
:100E800008950E9455070C943D080E94360858F0BA
:100E90000E942F0840F029F45F3F29F00C942608A7
:100EA00051110C9471080C942C080E944E0868F3A0
:100EB0009923B1F3552391F3951B550BBB27AA2713
:100EC00062177307840738F09F5F5F4F220F331F4D
:100ED000441FAA1FA9F335D00E2E3AF0E0E832D015
:100EE00091505040E695001CCAF72BD0FE2F29D018
:100EF000660F771F881FBB1F261737074807AB07EA
:100F0000B0E809F0BB0B802DBF01FF2793585F4F5E
:100F10003AF09E3F510578F00C9426080C94710825
:100F20005F3FE4F3983ED4F3869577956795B79540
:100F3000F7959F5FC9F7880F911D9695879597F94B
:100F40000895E1E0660F771F881FBB1F62177307C4
:100F50008407BA0720F0621B730B840BBA0BEE1FD9
:100F600088F7E09508950E94BA076894B1110C942F
:100F7000710808950E94560888F09F5798F0B92F7D
:100F80009927B751B0F0E1F0660F771F881F991FBE
:100F90001AF0BA95C9F714C0B13091F00E947008E8
:100FA000B1E008950C947008672F782F8827B85FF8
:100FB00039F0B93FCCF3869577956795B395D9F716
:100FC0003EF490958095709561957F4F8F4F9F4F20
:100FD0000895E89409C097FB3EF49095809570952C
:100FE00061957F4F8F4F9F4F9923A9F0F92F96E975
:100FF000BB279395F695879577956795B795F111EA
:10100000F8CFFAF4BB0F11F460FF1BC06F5F7F4F86
:101010008F4F9F4F16C0882311F096E911C0772398
:1010200021F09EE8872F762F05C0662371F096E8A1
:10103000862F70E060E02AF09A95660F771F881F70
:10104000DAF7880F9695879597F9089597F99F672E
:1010500080E870E060E008959FEF80EC0895002440
:101060000A941616170618060906089500240A940D
:1010700012161306140605060895092E0394000C93
:1010800011F4882352F0BB0F40F4BF2B11F460FF22
:1010900004C06F5F7F4F8F4F9F4F089557FD90584B
:1010A000440F551F59F05F3F71F04795880F97FB2C
:1010B000991F61F09F3F79F08795089512161306E6
:1010C0001406551FF2CF4695F1DF08C01616170615
:1010D0001806991FF1CF869571056105089408954A
:1010E000E894BB2766277727CB0197F908950E94DC
:1010F0008A080C943D080E942F0838F00E94360898
:1011000020F0952311F00C9426080C942C0811243F
:101110000C9471080E944E0870F3959FC1F3950FCF
:1011200050E0551F629FF001729FBB27F00DB11D6B
:10113000639FAA27F00DB11DAA1F649F6627B00DFB
:10114000A11D661F829F2227B00DA11D621F739FE4
:10115000B00DA11D621F839FA00D611D221F749FF2
:101160003327A00D611D231F849F600D211D822F39
:10117000762F6A2F11249F5750409AF0F1F0882360
:101180004AF0EE0FFF1FBB1F661F771F881F91508D
:101190005040A9F79E3F510580F00C9426080C940E
:1011A00071085F3FE4F3983ED4F386957795679591
:1011B000B795F795E7959F5FC1F7FE2B880F911DB7
:1011C0009695879597F9089519F416F40C942C08C0
:1011D0000C942A090E945608B8F39923C9F3B6F370
:1011E0009F57550B87FF0E9438090024A0E640EA6C
:1011F000900180585695979528F4805C660F771F6C
:10120000881F20F026173707480730F4621B730B3E
:10121000840B202931294A2BA69517940794202561
:1012200031254A2758F7660F771F881F20F02617A9
:101230003707480730F4620B730B840B200D311D08
:10124000411DA09581F7B901842F9158880F96957B
:10125000879508959F3F31F0915020F487957795B9
:101260006795B795880F911D9695879597F908957D
:1012700091505040660F771F881FD2F70895BB2703
:101280004A3031F4992322F4BDE2909581959F4F25
:101290000C944B09BB27FB015527AA27880F991FE0
:1012A000AA1FA41710F0A41B83955051B9F7A05D95
:1012B000AA3308F0A95DA193009779F7B111B19312
:1012C0001192CB010C946409DC01FC01672F719130
:1012D0007723E1F7329704C07C916D93708362911C
:0C12E000AE17BF07C8F30895F894FFCFC5
:1012EC000100CDCCCC3E010100E100000000080063
:00000001FF
